{
  "_format": "hh-sol-artifact-1",
  "contractName": "MembershipContract",
  "sourceName": "contracts/MembershipContract.sol",
  "abi": [
    {
      "inputs": [
        {
          "internalType": "address",
          "name": "_initialFounder",
          "type": "address"
        },
        {
          "internalType": "address payable",
          "name": "_incomeManagementContractAddress",
          "type": "address"
        }
      ],
      "stateMutability": "nonpayable",
      "type": "constructor"
    },
    {
      "inputs": [
        {
          "internalType": "address",
          "name": "owner",
          "type": "address"
        }
      ],
      "name": "OwnableInvalidOwner",
      "type": "error"
    },
    {
      "inputs": [
        {
          "internalType": "address",
          "name": "account",
          "type": "address"
        }
      ],
      "name": "OwnableUnauthorizedAccount",
      "type": "error"
    },
    {
      "anonymous": false,
      "inputs": [
        {
          "indexed": true,
          "internalType": "address",
          "name": "memberAddress",
          "type": "address"
        },
        {
          "indexed": false,
          "internalType": "uint256",
          "name": "memberType",
          "type": "uint256"
        }
      ],
      "name": "MemberAdded",
      "type": "event"
    },
    {
      "anonymous": false,
      "inputs": [
        {
          "indexed": true,
          "internalType": "address",
          "name": "previousOwner",
          "type": "address"
        },
        {
          "indexed": true,
          "internalType": "address",
          "name": "newOwner",
          "type": "address"
        }
      ],
      "name": "OwnershipTransferred",
      "type": "event"
    },
    {
      "anonymous": false,
      "inputs": [
        {
          "indexed": false,
          "internalType": "uint256",
          "name": "oldFee",
          "type": "uint256"
        },
        {
          "indexed": false,
          "internalType": "uint256",
          "name": "newFee",
          "type": "uint256"
        }
      ],
      "name": "VotingMemberEntryFeeSet",
      "type": "event"
    },
    {
      "inputs": [
        {
          "internalType": "address",
          "name": "_newMember",
          "type": "address"
        }
      ],
      "name": "addVotingMember",
      "outputs": [],
      "stateMutability": "nonpayable",
      "type": "function"
    },
    {
      "inputs": [],
      "name": "founder",
      "outputs": [
        {
          "internalType": "address",
          "name": "",
          "type": "address"
        }
      ],
      "stateMutability": "view",
      "type": "function"
    },
    {
      "inputs": [],
      "name": "getCurrentVotingMemberEntryFee",
      "outputs": [
        {
          "internalType": "uint256",
          "name": "",
          "type": "uint256"
        }
      ],
      "stateMutability": "view",
      "type": "function"
    },
    {
      "inputs": [],
      "name": "getTotalVotingMembers",
      "outputs": [
        {
          "internalType": "uint256",
          "name": "",
          "type": "uint256"
        }
      ],
      "stateMutability": "view",
      "type": "function"
    },
    {
      "inputs": [],
      "name": "incomeManagementContractAddress",
      "outputs": [
        {
          "internalType": "address payable",
          "name": "",
          "type": "address"
        }
      ],
      "stateMutability": "view",
      "type": "function"
    },
    {
      "inputs": [
        {
          "internalType": "address",
          "name": "_account",
          "type": "address"
        }
      ],
      "name": "isVotingMember",
      "outputs": [
        {
          "internalType": "bool",
          "name": "",
          "type": "bool"
        }
      ],
      "stateMutability": "view",
      "type": "function"
    },
    {
      "inputs": [],
      "name": "join",
      "outputs": [],
      "stateMutability": "payable",
      "type": "function"
    },
    {
      "inputs": [],
      "name": "owner",
      "outputs": [
        {
          "internalType": "address",
          "name": "",
          "type": "address"
        }
      ],
      "stateMutability": "view",
      "type": "function"
    },
    {
      "inputs": [],
      "name": "renounceOwnership",
      "outputs": [],
      "stateMutability": "nonpayable",
      "type": "function"
    },
    {
      "inputs": [
        {
          "internalType": "uint256",
          "name": "_newFee",
          "type": "uint256"
        }
      ],
      "name": "setVotingMemberEntryFee",
      "outputs": [],
      "stateMutability": "nonpayable",
      "type": "function"
    },
    {
      "inputs": [],
      "name": "totalVotingMembers",
      "outputs": [
        {
          "internalType": "uint256",
          "name": "",
          "type": "uint256"
        }
      ],
      "stateMutability": "view",
      "type": "function"
    },
    {
      "inputs": [
        {
          "internalType": "address",
          "name": "newOwner",
          "type": "address"
        }
      ],
      "name": "transferOwnership",
      "outputs": [],
      "stateMutability": "nonpayable",
      "type": "function"
    },
    {
      "inputs": [],
      "name": "votingMemberEntryFee",
      "outputs": [
        {
          "internalType": "uint256",
          "name": "",
          "type": "uint256"
        }
      ],
      "stateMutability": "view",
      "type": "function"
    }
  ],
  "bytecode": "0x6080604052600060015534801561001557600080fd5b50604051611525380380611525833981810160405281019061003791906103e6565b81600073ffffffffffffffffffffffffffffffffffffffff168173ffffffffffffffffffffffffffffffffffffffff16036100aa5760006040517f1e4fbdf70000000000000000000000000000000000000000000000000000000081526004016100a19190610435565b60405180910390fd5b6100b98161028160201b60201c565b50600073ffffffffffffffffffffffffffffffffffffffff168273ffffffffffffffffffffffffffffffffffffffff1603610129576040517f08c379a0000000000000000000000000000000000000000000000000000000008152600401610120906104d3565b60405180910390fd5b600073ffffffffffffffffffffffffffffffffffffffff168173ffffffffffffffffffffffffffffffffffffffff1603610198576040517f08c379a000000000000000000000000000000000000000000000000000000000815260040161018f90610565565b60405180910390fd5b81600360006101000a81548173ffffffffffffffffffffffffffffffffffffffff021916908373ffffffffffffffffffffffffffffffffffffffff16021790555080600460006101000a81548173ffffffffffffffffffffffffffffffffffffffff021916908373ffffffffffffffffffffffffffffffffffffffff1602179055506001600260008473ffffffffffffffffffffffffffffffffffffffff1673ffffffffffffffffffffffffffffffffffffffff16815260200190815260200160002060006101000a81548160ff02191690831515021790555060016005819055505050610585565b60008060009054906101000a900473ffffffffffffffffffffffffffffffffffffffff169050816000806101000a81548173ffffffffffffffffffffffffffffffffffffffff021916908373ffffffffffffffffffffffffffffffffffffffff1602179055508173ffffffffffffffffffffffffffffffffffffffff168173ffffffffffffffffffffffffffffffffffffffff167f8be0079c531659141344cd1fd0a4f28419497f9722a3daafe3b4186f6b6457e060405160405180910390a35050565b600080fd5b600073ffffffffffffffffffffffffffffffffffffffff82169050919050565b60006103758261034a565b9050919050565b6103858161036a565b811461039057600080fd5b50565b6000815190506103a28161037c565b92915050565b60006103b38261034a565b9050919050565b6103c3816103a8565b81146103ce57600080fd5b50565b6000815190506103e0816103ba565b92915050565b600080604083850312156103fd576103fc610345565b5b600061040b85828601610393565b925050602061041c858286016103d1565b9150509250929050565b61042f8161036a565b82525050565b600060208201905061044a6000830184610426565b92915050565b600082825260208201905092915050565b7f4d656d626572736869703a20496e76616c696420696e697469616c20666f756e60008201527f6465722061646472657373000000000000000000000000000000000000000000602082015250565b60006104bd602b83610450565b91506104c882610461565b604082019050919050565b600060208201905081810360008301526104ec816104b0565b9050919050565b7f4d656d626572736869703a20496e76616c696420496e636f6d654d616e61676560008201527f6d656e74436f6e74726163742061646472657373000000000000000000000000602082015250565b600061054f603483610450565b915061055a826104f3565b604082019050919050565b6000602082019050818103600083015261057e81610542565b9050919050565b610f91806105946000396000f3fe6080604052600436106100c25760003560e01c80638b0cd0dd1161007f5780639b2b622d116100595780639b2b622d14610234578063a8570e1514610271578063b688a3631461029a578063f2fde38b146102a4576100c2565b80638b0cd0dd146101b35780638da5cb5b146101de5780639664ba1814610209576100c2565b806311b2c5ff146100c757806315f75014146100f25780632c299c0d1461011d57806344e969e7146101465780634d853ee514610171578063715018a61461019c575b600080fd5b3480156100d357600080fd5b506100dc6102cd565b6040516100e99190610a42565b60405180910390f35b3480156100fe57600080fd5b506101076102d7565b6040516101149190610a42565b60405180910390f35b34801561012957600080fd5b50610144600480360381019061013f9190610a8e565b6102dd565b005b34801561015257600080fd5b5061015b610330565b6040516101689190610afc565b60405180910390f35b34801561017d57600080fd5b50610186610356565b6040516101939190610b38565b60405180910390f35b3480156101a857600080fd5b506101b161037c565b005b3480156101bf57600080fd5b506101c8610390565b6040516101d59190610a42565b60405180910390f35b3480156101ea57600080fd5b506101f361039a565b6040516102009190610b38565b60405180910390f35b34801561021557600080fd5b5061021e6103c3565b60405161022b9190610a42565b60405180910390f35b34801561024057600080fd5b5061025b60048036038101906102569190610b7f565b6103c9565b6040516102689190610bc7565b60405180910390f35b34801561027d57600080fd5b5061029860048036038101906102939190610b7f565b61041f565b005b6102a26105e5565b005b3480156102b057600080fd5b506102cb60048036038101906102c69190610b7f565b610850565b005b6000600154905090565b60055481565b6102e56108d6565b60006001549050816001819055507ffd47b96bece02cdb15b606ab6318eaaddb12ee3f8b6a23f236490df64781405b8183604051610324929190610be2565b60405180910390a15050565b600460009054906101000a900473ffffffffffffffffffffffffffffffffffffffff1681565b600360009054906101000a900473ffffffffffffffffffffffffffffffffffffffff1681565b6103846108d6565b61038e600061095d565b565b6000600554905090565b60008060009054906101000a900473ffffffffffffffffffffffffffffffffffffffff16905090565b60015481565b6000600260008373ffffffffffffffffffffffffffffffffffffffff1673ffffffffffffffffffffffffffffffffffffffff16815260200190815260200160002060009054906101000a900460ff169050919050565b6104276108d6565b600260008273ffffffffffffffffffffffffffffffffffffffff1673ffffffffffffffffffffffffffffffffffffffff16815260200190815260200160002060009054906101000a900460ff16156104b4576040517f08c379a00000000000000000000000000000000000000000000000000000000081526004016104ab90610c8e565b60405180910390fd5b600073ffffffffffffffffffffffffffffffffffffffff168173ffffffffffffffffffffffffffffffffffffffff1603610523576040517f08c379a000000000000000000000000000000000000000000000000000000000815260040161051a90610d20565b60405180910390fd5b6001600260008373ffffffffffffffffffffffffffffffffffffffff1673ffffffffffffffffffffffffffffffffffffffff16815260200190815260200160002060006101000a81548160ff0219169083151502179055506005600081548092919061058e90610d6f565b91905055508073ffffffffffffffffffffffffffffffffffffffff167fede8eed4383e9241982619b94dd83e488b274cced0fd07b8c0092a393defd52f60016040516105da9190610dfc565b60405180910390a250565b600260003373ffffffffffffffffffffffffffffffffffffffff1673ffffffffffffffffffffffffffffffffffffffff16815260200190815260200160002060009054906101000a900460ff1615610672576040517f08c379a000000000000000000000000000000000000000000000000000000000815260040161066990610c8e565b60405180910390fd5b60015434146106b6576040517f08c379a00000000000000000000000000000000000000000000000000000000081526004016106ad90610e89565b60405180910390fd5b600034111561078f576000600460009054906101000a900473ffffffffffffffffffffffffffffffffffffffff1673ffffffffffffffffffffffffffffffffffffffff163460405161070790610eda565b60006040518083038185875af1925050503d8060008114610744576040519150601f19603f3d011682016040523d82523d6000602084013e610749565b606091505b505090508061078d576040517f08c379a000000000000000000000000000000000000000000000000000000000815260040161078490610f3b565b60405180910390fd5b505b6001600260003373ffffffffffffffffffffffffffffffffffffffff1673ffffffffffffffffffffffffffffffffffffffff16815260200190815260200160002060006101000a81548160ff021916908315150217905550600560008154809291906107fa90610d6f565b91905055503373ffffffffffffffffffffffffffffffffffffffff167fede8eed4383e9241982619b94dd83e488b274cced0fd07b8c0092a393defd52f60016040516108469190610dfc565b60405180910390a2565b6108586108d6565b600073ffffffffffffffffffffffffffffffffffffffff168173ffffffffffffffffffffffffffffffffffffffff16036108ca5760006040517f1e4fbdf70000000000000000000000000000000000000000000000000000000081526004016108c19190610b38565b60405180910390fd5b6108d38161095d565b50565b6108de610a21565b73ffffffffffffffffffffffffffffffffffffffff166108fc61039a565b73ffffffffffffffffffffffffffffffffffffffff161461095b5761091f610a21565b6040517f118cdaa70000000000000000000000000000000000000000000000000000000081526004016109529190610b38565b60405180910390fd5b565b60008060009054906101000a900473ffffffffffffffffffffffffffffffffffffffff169050816000806101000a81548173ffffffffffffffffffffffffffffffffffffffff021916908373ffffffffffffffffffffffffffffffffffffffff1602179055508173ffffffffffffffffffffffffffffffffffffffff168173ffffffffffffffffffffffffffffffffffffffff167f8be0079c531659141344cd1fd0a4f28419497f9722a3daafe3b4186f6b6457e060405160405180910390a35050565b600033905090565b6000819050919050565b610a3c81610a29565b82525050565b6000602082019050610a576000830184610a33565b92915050565b600080fd5b610a6b81610a29565b8114610a7657600080fd5b50565b600081359050610a8881610a62565b92915050565b600060208284031215610aa457610aa3610a5d565b5b6000610ab284828501610a79565b91505092915050565b600073ffffffffffffffffffffffffffffffffffffffff82169050919050565b6000610ae682610abb565b9050919050565b610af681610adb565b82525050565b6000602082019050610b116000830184610aed565b92915050565b6000610b2282610abb565b9050919050565b610b3281610b17565b82525050565b6000602082019050610b4d6000830184610b29565b92915050565b610b5c81610b17565b8114610b6757600080fd5b50565b600081359050610b7981610b53565b92915050565b600060208284031215610b9557610b94610a5d565b5b6000610ba384828501610b6a565b91505092915050565b60008115159050919050565b610bc181610bac565b82525050565b6000602082019050610bdc6000830184610bb8565b92915050565b6000604082019050610bf76000830185610a33565b610c046020830184610a33565b9392505050565b600082825260208201905092915050565b7f4d656d626572736869703a204164647265737320697320616c7265616479206160008201527f206d656d62657200000000000000000000000000000000000000000000000000602082015250565b6000610c78602783610c0b565b9150610c8382610c1c565b604082019050919050565b60006020820190508181036000830152610ca781610c6b565b9050919050565b7f4d656d626572736869703a2043616e6e6f7420616464207a65726f206164647260008201527f6573730000000000000000000000000000000000000000000000000000000000602082015250565b6000610d0a602383610c0b565b9150610d1582610cae565b604082019050919050565b60006020820190508181036000830152610d3981610cfd565b9050919050565b7f4e487b7100000000000000000000000000000000000000000000000000000000600052601160045260246000fd5b6000610d7a82610a29565b91507fffffffffffffffffffffffffffffffffffffffffffffffffffffffffffffffff8203610dac57610dab610d40565b5b600182019050919050565b6000819050919050565b6000819050919050565b6000610de6610de1610ddc84610db7565b610dc1565b610a29565b9050919050565b610df681610dcb565b82525050565b6000602082019050610e116000830184610ded565b92915050565b7f4d656d626572736869703a20496e636f727265637420656e747279206665652060008201527f73656e7400000000000000000000000000000000000000000000000000000000602082015250565b6000610e73602483610c0b565b9150610e7e82610e17565b604082019050919050565b60006020820190508181036000830152610ea281610e66565b9050919050565b600081905092915050565b50565b6000610ec4600083610ea9565b9150610ecf82610eb4565b600082019050919050565b6000610ee582610eb7565b9150819050919050565b7f4d656d626572736869703a20466565207472616e73666572206661696c656400600082015250565b6000610f25601f83610c0b565b9150610f3082610eef565b602082019050919050565b60006020820190508181036000830152610f5481610f18565b905091905056fea2646970667358221220e9bba1bb3ab7a1627453bbd9541974293bff77b171fb36651b4d7bea03d9cea164736f6c634300081c0033",
  "linkReferences": {},
  "deployedLinkReferences": {}
}