{
  "_format": "hh-sol-artifact-1",
  "contractName": "GovernanceContract",
  "sourceName": "contracts/GovernanceContract.sol",
  "abi": [
    {
      "inputs": [
        {
          "internalType": "address",
          "name": "_membershipContractAddress",
          "type": "address"
        },
        {
          "internalType": "address",
          "name": "_incomeManagementContractAddress",
          "type": "address"
        },
        {
          "internalType": "address",
          "name": "_paymentContractAddress",
          "type": "address"
        },
        {
          "internalType": "address",
          "name": "initialOwner",
          "type": "address"
        }
      ],
      "stateMutability": "nonpayable",
      "type": "constructor"
    },
    {
      "inputs": [
        {
          "internalType": "address",
          "name": "owner",
          "type": "address"
        }
      ],
      "name": "OwnableInvalidOwner",
      "type": "error"
    },
    {
      "inputs": [
        {
          "internalType": "address",
          "name": "account",
          "type": "address"
        }
      ],
      "name": "OwnableUnauthorizedAccount",
      "type": "error"
    },
    {
      "anonymous": false,
      "inputs": [
        {
          "indexed": true,
          "internalType": "address",
          "name": "previousOwner",
          "type": "address"
        },
        {
          "indexed": true,
          "internalType": "address",
          "name": "newOwner",
          "type": "address"
        }
      ],
      "name": "OwnershipTransferred",
      "type": "event"
    },
    {
      "anonymous": false,
      "inputs": [
        {
          "indexed": false,
          "internalType": "uint256",
          "name": "proposalId",
          "type": "uint256"
        }
      ],
      "name": "ProposalCanceled",
      "type": "event"
    },
    {
      "anonymous": false,
      "inputs": [
        {
          "indexed": false,
          "internalType": "uint256",
          "name": "proposalId",
          "type": "uint256"
        },
        {
          "indexed": false,
          "internalType": "address",
          "name": "proposer",
          "type": "address"
        },
        {
          "indexed": false,
          "internalType": "address[]",
          "name": "targets",
          "type": "address[]"
        },
        {
          "indexed": false,
          "internalType": "uint256[]",
          "name": "values",
          "type": "uint256[]"
        },
        {
          "indexed": false,
          "internalType": "string[]",
          "name": "signatures",
          "type": "string[]"
        },
        {
          "indexed": false,
          "internalType": "bytes[]",
          "name": "calldatas",
          "type": "bytes[]"
        },
        {
          "indexed": false,
          "internalType": "uint256",
          "name": "startTime",
          "type": "uint256"
        },
        {
          "indexed": false,
          "internalType": "uint256",
          "name": "endTime",
          "type": "uint256"
        },
        {
          "indexed": false,
          "internalType": "string",
          "name": "description",
          "type": "string"
        }
      ],
      "name": "ProposalCreated",
      "type": "event"
    },
    {
      "anonymous": false,
      "inputs": [
        {
          "indexed": false,
          "internalType": "uint256",
          "name": "proposalId",
          "type": "uint256"
        }
      ],
      "name": "ProposalExecuted",
      "type": "event"
    },
    {
      "anonymous": false,
      "inputs": [
        {
          "indexed": false,
          "internalType": "uint256",
          "name": "proposalId",
          "type": "uint256"
        },
        {
          "indexed": false,
          "internalType": "address",
          "name": "voter",
          "type": "address"
        },
        {
          "indexed": false,
          "internalType": "bool",
          "name": "support",
          "type": "bool"
        },
        {
          "indexed": false,
          "internalType": "uint256",
          "name": "weight",
          "type": "uint256"
        }
      ],
      "name": "Voted",
      "type": "event"
    },
    {
      "inputs": [
        {
          "internalType": "address[]",
          "name": "targets",
          "type": "address[]"
        },
        {
          "internalType": "uint256[]",
          "name": "values",
          "type": "uint256[]"
        },
        {
          "internalType": "string[]",
          "name": "signatures",
          "type": "string[]"
        },
        {
          "internalType": "bytes[]",
          "name": "calldatas",
          "type": "bytes[]"
        },
        {
          "internalType": "string",
          "name": "description",
          "type": "string"
        }
      ],
      "name": "createProposal",
      "outputs": [
        {
          "internalType": "uint256",
          "name": "proposalId",
          "type": "uint256"
        }
      ],
      "stateMutability": "nonpayable",
      "type": "function"
    },
    {
      "inputs": [
        {
          "internalType": "uint256",
          "name": "proposalId",
          "type": "uint256"
        }
      ],
      "name": "executeProposal",
      "outputs": [],
      "stateMutability": "payable",
      "type": "function"
    },
    {
      "inputs": [
        {
          "internalType": "uint256",
          "name": "proposalId",
          "type": "uint256"
        }
      ],
      "name": "getProposalCalldatas",
      "outputs": [
        {
          "internalType": "bytes[]",
          "name": "",
          "type": "bytes[]"
        }
      ],
      "stateMutability": "view",
      "type": "function"
    },
    {
      "inputs": [
        {
          "internalType": "uint256",
          "name": "proposalId",
          "type": "uint256"
        }
      ],
      "name": "getProposalCoreDetails",
      "outputs": [
        {
          "internalType": "uint256",
          "name": "id",
          "type": "uint256"
        },
        {
          "internalType": "address",
          "name": "proposer",
          "type": "address"
        },
        {
          "internalType": "uint256",
          "name": "startTime",
          "type": "uint256"
        },
        {
          "internalType": "uint256",
          "name": "endTime",
          "type": "uint256"
        },
        {
          "internalType": "string",
          "name": "description",
          "type": "string"
        },
        {
          "internalType": "bool",
          "name": "executed",
          "type": "bool"
        },
        {
          "internalType": "bool",
          "name": "canceled",
          "type": "bool"
        },
        {
          "internalType": "uint256",
          "name": "forVotes",
          "type": "uint256"
        },
        {
          "internalType": "uint256",
          "name": "againstVotes",
          "type": "uint256"
        }
      ],
      "stateMutability": "view",
      "type": "function"
    },
    {
      "inputs": [
        {
          "internalType": "uint256",
          "name": "proposalId",
          "type": "uint256"
        }
      ],
      "name": "getProposalSignatures",
      "outputs": [
        {
          "internalType": "string[]",
          "name": "",
          "type": "string[]"
        }
      ],
      "stateMutability": "view",
      "type": "function"
    },
    {
      "inputs": [
        {
          "internalType": "uint256",
          "name": "proposalId",
          "type": "uint256"
        }
      ],
      "name": "getProposalTargets",
      "outputs": [
        {
          "internalType": "address[]",
          "name": "",
          "type": "address[]"
        }
      ],
      "stateMutability": "view",
      "type": "function"
    },
    {
      "inputs": [
        {
          "internalType": "uint256",
          "name": "proposalId",
          "type": "uint256"
        }
      ],
      "name": "getProposalValues",
      "outputs": [
        {
          "internalType": "uint256[]",
          "name": "",
          "type": "uint256[]"
        }
      ],
      "stateMutability": "view",
      "type": "function"
    },
    {
      "inputs": [
        {
          "internalType": "address",
          "name": "account",
          "type": "address"
        }
      ],
      "name": "getVotes",
      "outputs": [
        {
          "internalType": "uint256",
          "name": "",
          "type": "uint256"
        }
      ],
      "stateMutability": "view",
      "type": "function"
    },
    {
      "inputs": [
        {
          "internalType": "uint256",
          "name": "proposalId",
          "type": "uint256"
        },
        {
          "internalType": "address",
          "name": "voter",
          "type": "address"
        }
      ],
      "name": "hasVoted",
      "outputs": [
        {
          "internalType": "bool",
          "name": "",
          "type": "bool"
        }
      ],
      "stateMutability": "view",
      "type": "function"
    },
    {
      "inputs": [],
      "name": "incomeManagementContract",
      "outputs": [
        {
          "internalType": "address payable",
          "name": "",
          "type": "address"
        }
      ],
      "stateMutability": "view",
      "type": "function"
    },
    {
      "inputs": [],
      "name": "membershipContract",
      "outputs": [
        {
          "internalType": "contract MembershipContract",
          "name": "",
          "type": "address"
        }
      ],
      "stateMutability": "view",
      "type": "function"
    },
    {
      "inputs": [],
      "name": "owner",
      "outputs": [
        {
          "internalType": "address",
          "name": "",
          "type": "address"
        }
      ],
      "stateMutability": "view",
      "type": "function"
    },
    {
      "inputs": [],
      "name": "paymentContract",
      "outputs": [
        {
          "internalType": "contract PaymentContract",
          "name": "",
          "type": "address"
        }
      ],
      "stateMutability": "view",
      "type": "function"
    },
    {
      "inputs": [],
      "name": "proposalCounter",
      "outputs": [
        {
          "internalType": "uint256",
          "name": "",
          "type": "uint256"
        }
      ],
      "stateMutability": "view",
      "type": "function"
    },
    {
      "inputs": [
        {
          "internalType": "uint256",
          "name": "",
          "type": "uint256"
        }
      ],
      "name": "proposals",
      "outputs": [
        {
          "internalType": "uint256",
          "name": "id",
          "type": "uint256"
        },
        {
          "internalType": "address",
          "name": "proposer",
          "type": "address"
        },
        {
          "internalType": "uint256",
          "name": "startTime",
          "type": "uint256"
        },
        {
          "internalType": "uint256",
          "name": "endTime",
          "type": "uint256"
        },
        {
          "internalType": "string",
          "name": "description",
          "type": "string"
        },
        {
          "internalType": "bool",
          "name": "executed",
          "type": "bool"
        },
        {
          "internalType": "bool",
          "name": "canceled",
          "type": "bool"
        },
        {
          "internalType": "uint256",
          "name": "forVotes",
          "type": "uint256"
        },
        {
          "internalType": "uint256",
          "name": "againstVotes",
          "type": "uint256"
        }
      ],
      "stateMutability": "view",
      "type": "function"
    },
    {
      "inputs": [],
      "name": "renounceOwnership",
      "outputs": [],
      "stateMutability": "nonpayable",
      "type": "function"
    },
    {
      "inputs": [
        {
          "internalType": "address",
          "name": "newOwner",
          "type": "address"
        }
      ],
      "name": "transferOwnership",
      "outputs": [],
      "stateMutability": "nonpayable",
      "type": "function"
    },
    {
      "inputs": [
        {
          "internalType": "uint256",
          "name": "proposalId",
          "type": "uint256"
        },
        {
          "internalType": "uint256",
          "name": "newEndTime",
          "type": "uint256"
        }
      ],
      "name": "updateProposalEndTime",
      "outputs": [],
      "stateMutability": "nonpayable",
      "type": "function"
    },
    {
      "inputs": [
        {
          "internalType": "uint256",
          "name": "proposalId",
          "type": "uint256"
        },
        {
          "internalType": "bool",
          "name": "support",
          "type": "bool"
        }
      ],
      "name": "vote",
      "outputs": [],
      "stateMutability": "nonpayable",
      "type": "function"
    },
    {
      "inputs": [],
      "name": "votingPeriod",
      "outputs": [
        {
          "internalType": "uint256",
          "name": "",
          "type": "uint256"
        }
      ],
      "stateMutability": "view",
      "type": "function"
    }
  ],
  "bytecode": "0x608060405262093a8060055534801561001757600080fd5b50604051613f28380380613f28833981810160405281019061003991906103fc565b80600073ffffffffffffffffffffffffffffffffffffffff168173ffffffffffffffffffffffffffffffffffffffff16036100ac5760006040517f1e4fbdf70000000000000000000000000000000000000000000000000000000081526004016100a39190610472565b60405180910390fd5b6100bb816102d560201b60201c565b50600073ffffffffffffffffffffffffffffffffffffffff168473ffffffffffffffffffffffffffffffffffffffff160361012b576040517f08c379a000000000000000000000000000000000000000000000000000000000815260040161012290610510565b60405180910390fd5b600073ffffffffffffffffffffffffffffffffffffffff168373ffffffffffffffffffffffffffffffffffffffff160361019a576040517f08c379a0000000000000000000000000000000000000000000000000000000008152600401610191906105a2565b60405180910390fd5b600073ffffffffffffffffffffffffffffffffffffffff168273ffffffffffffffffffffffffffffffffffffffff1603610209576040517f08c379a000000000000000000000000000000000000000000000000000000000815260040161020090610634565b60405180910390fd5b83600160006101000a81548173ffffffffffffffffffffffffffffffffffffffff021916908373ffffffffffffffffffffffffffffffffffffffff16021790555082600260006101000a81548173ffffffffffffffffffffffffffffffffffffffff021916908373ffffffffffffffffffffffffffffffffffffffff16021790555081600360006101000a81548173ffffffffffffffffffffffffffffffffffffffff021916908373ffffffffffffffffffffffffffffffffffffffff16021790555050505050610654565b60008060009054906101000a900473ffffffffffffffffffffffffffffffffffffffff169050816000806101000a81548173ffffffffffffffffffffffffffffffffffffffff021916908373ffffffffffffffffffffffffffffffffffffffff1602179055508173ffffffffffffffffffffffffffffffffffffffff168173ffffffffffffffffffffffffffffffffffffffff167f8be0079c531659141344cd1fd0a4f28419497f9722a3daafe3b4186f6b6457e060405160405180910390a35050565b600080fd5b600073ffffffffffffffffffffffffffffffffffffffff82169050919050565b60006103c98261039e565b9050919050565b6103d9816103be565b81146103e457600080fd5b50565b6000815190506103f6816103d0565b92915050565b6000806000806080858703121561041657610415610399565b5b6000610424878288016103e7565b9450506020610435878288016103e7565b9350506040610446878288016103e7565b9250506060610457878288016103e7565b91505092959194509250565b61046c816103be565b82525050565b60006020820190506104876000830184610463565b92915050565b600082825260208201905092915050565b7f476f7665726e616e63653a20496e76616c6964204d656d62657273686970436f60008201527f6e74726163742061646472657373000000000000000000000000000000000000602082015250565b60006104fa602e8361048d565b91506105058261049e565b604082019050919050565b60006020820190508181036000830152610529816104ed565b9050919050565b7f476f7665726e616e63653a20496e76616c696420496e636f6d654d616e61676560008201527f6d656e74436f6e74726163742061646472657373000000000000000000000000602082015250565b600061058c60348361048d565b915061059782610530565b604082019050919050565b600060208201905081810360008301526105bb8161057f565b9050919050565b7f476f7665726e616e63653a20496e76616c6964205061796d656e74436f6e747260008201527f6163742061646472657373000000000000000000000000000000000000000000602082015250565b600061061e602b8361048d565b9150610629826105c2565b604082019050919050565b6000602082019050818103600083015261064d81610611565b9050919050565b6138c5806106636000396000f3fe60806040526004361061011e5760003560e01c806343859632116100a05780639ab24eb0116100645780639ab24eb0146104255780639c91dd5614610462578063c9d27afe1461048d578063d46b3438146104b6578063f2fde38b146104df5761011e565b8063438596321461033e57806351ec8d1e1461037b578063715018a6146103a65780638da5cb5b146103bd57806394a76129146103e85761011e565b80630d61b519116100e75780630d61b519146102405780630ef8b7ab1461025c57806316f2d7c01461028757806324ecf717146102c45780632e768ebd146103015761011e565b806238ec9914610123578063013cf08b1461016857806301c17a70146101ad57806302a251a3146101ea5780630c0512e914610215575b600080fd5b34801561012f57600080fd5b5061014a60048036038101906101459190611bed565b610508565b60405161015f99989796959493929190611d15565b60405180910390f35b34801561017457600080fd5b5061018f600480360381019061018a9190611bed565b610684565b6040516101a499989796959493929190611d15565b60405180910390f35b3480156101b957600080fd5b506101d460048036038101906101cf9190611bed565b610794565b6040516101e19190611e67565b60405180910390f35b3480156101f657600080fd5b506101ff610802565b60405161020c9190611e89565b60405180910390f35b34801561022157600080fd5b5061022a610808565b6040516102379190611e89565b60405180910390f35b61025a60048036038101906102559190611bed565b61080e565b005b34801561026857600080fd5b50610271610bf0565b60405161027e9190611ec5565b60405180910390f35b34801561029357600080fd5b506102ae60048036038101906102a99190611bed565b610c16565b6040516102bb9190611fec565b60405180910390f35b3480156102d057600080fd5b506102eb60048036038101906102e69190611bed565b610d05565b6040516102f891906120cc565b60405180910390f35b34801561030d57600080fd5b506103286004803603810190610323919061263d565b610da9565b6040516103359190611e89565b60405180910390f35b34801561034a57600080fd5b5061036560048036038101906103609190612744565b611032565b6040516103729190612784565b60405180910390f35b34801561038757600080fd5b5061039061109d565b60405161039d91906127fe565b60405180910390f35b3480156103b257600080fd5b506103bb6110c3565b005b3480156103c957600080fd5b506103d26110d7565b6040516103df9190612819565b60405180910390f35b3480156103f457600080fd5b5061040f600480360381019061040a9190611bed565b611100565b60405161041c919061294b565b60405180910390f35b34801561043157600080fd5b5061044c6004803603810190610447919061296d565b6111ef565b6040516104599190611e89565b60405180910390f35b34801561046e57600080fd5b506104776112a5565b60405161048491906129bb565b60405180910390f35b34801561049957600080fd5b506104b460048036038101906104af9190612a02565b6112cb565b005b3480156104c257600080fd5b506104dd60048036038101906104d89190612a42565b611650565b005b3480156104eb57600080fd5b506105066004803603810190610501919061296d565b61175c565b005b60008060008060606000806000806000600660008c81526020019081526020016000209050600081600601540361057157600080600080600080600080604051806020016040528060008152509392919099509950995099509950995099509950995050610677565b80600001548160010160009054906101000a900473ffffffffffffffffffffffffffffffffffffffff1682600601548360070154846008018560090160009054906101000a900460ff168660090160019054906101000a900460ff1687600a015488600b01548480546105e390612ab1565b80601f016020809104026020016040519081016040528092919081815260200182805461060f90612ab1565b801561065c5780601f106106315761010080835404028352916020019161065c565b820191906000526020600020905b81548152906001019060200180831161063f57829003601f168201915b50505050509450995099509950995099509950995099509950505b9193959799909294969850565b60066020528060005260406000206000915090508060000154908060010160009054906101000a900473ffffffffffffffffffffffffffffffffffffffff16908060060154908060070154908060080180546106df90612ab1565b80601f016020809104026020016040519081016040528092919081815260200182805461070b90612ab1565b80156107585780601f1061072d57610100808354040283529160200191610758565b820191906000526020600020905b81548152906001019060200180831161073b57829003601f168201915b5050505050908060090160009054906101000a900460ff16908060090160019054906101000a900460ff169080600a01549080600b0154905089565b6060600660008381526020019081526020016000206003018054806020026020016040519081016040528092919081815260200182805480156107f657602002820191906000526020600020905b8154815260200190600101908083116107e2575b50505050509050919050565b60055481565b60045481565b60006006600083815260200190815260200160002090508060090160009054906101000a900460ff1615610877576040517f08c379a000000000000000000000000000000000000000000000000000000000815260040161086e90612b54565b60405180910390fd5b806007015442116108bd576040517f08c379a00000000000000000000000000000000000000000000000000000000081526004016108b490612be6565b60405180910390fd5b600081600b015482600a01546108d39190612c35565b90506000600160009054906101000a900473ffffffffffffffffffffffffffffffffffffffff1673ffffffffffffffffffffffffffffffffffffffff16638b0cd0dd6040518163ffffffff1660e01b8152600401602060405180830381865afa158015610944573d6000803e3d6000fd5b505050506040513d601f19601f820116820180604052508101906109689190612c7e565b9050600081116109ad576040517f08c379a00000000000000000000000000000000000000000000000000000000081526004016109a490612d1d565b60405180910390fd5b806002836109bb9190612d3d565b116109fb576040517f08c379a00000000000000000000000000000000000000000000000000000000081526004016109f290612dcb565b60405180910390fd5b82600b015483600a015411610a45576040517f08c379a0000000000000000000000000000000000000000000000000000000008152600401610a3c90612e5d565b60405180910390fd5b60018360090160006101000a81548160ff02191690831515021790555060005b8360020180549050811015610bb257600080856002018381548110610a8d57610a8c612e7d565b5b9060005260206000200160009054906101000a900473ffffffffffffffffffffffffffffffffffffffff1673ffffffffffffffffffffffffffffffffffffffff16866003018481548110610ae457610ae3612e7d565b5b9060005260206000200154876005018581548110610b0557610b04612e7d565b5b90600052602060002001604051610b1c9190612f4f565b60006040518083038185875af1925050503d8060008114610b59576040519150601f19603f3d011682016040523d82523d6000602084013e610b5e565b606091505b509150915081610ba3576040517f08c379a0000000000000000000000000000000000000000000000000000000008152600401610b9a90612fd8565b60405180910390fd5b50508080600101915050610a65565b507f712ae1383f79ac853f8d882153778e0260ef8f03b504e2866e0593e04d2b291f84604051610be29190611e89565b60405180910390a150505050565b600260009054906101000a900473ffffffffffffffffffffffffffffffffffffffff1681565b606060066000838152602001908152602001600020600401805480602002602001604051908101604052809291908181526020016000905b82821015610cfa578382906000526020600020018054610c6d90612ab1565b80601f0160208091040260200160405190810160405280929190818152602001828054610c9990612ab1565b8015610ce65780601f10610cbb57610100808354040283529160200191610ce6565b820191906000526020600020905b815481529060010190602001808311610cc957829003601f168201915b505050505081526020019060010190610c4e565b505050509050919050565b606060066000838152602001908152602001600020600201805480602002602001604051908101604052809291908181526020018280548015610d9d57602002820191906000526020600020905b8160009054906101000a900473ffffffffffffffffffffffffffffffffffffffff1673ffffffffffffffffffffffffffffffffffffffff1681526020019060010190808311610d53575b50505050509050919050565b6000600160009054906101000a900473ffffffffffffffffffffffffffffffffffffffff1673ffffffffffffffffffffffffffffffffffffffff16639b2b622d336040518263ffffffff1660e01b8152600401610e069190612819565b602060405180830381865afa158015610e23573d6000803e3d6000fd5b505050506040513d601f19601f82011682018060405250810190610e47919061300d565b610e86576040517f08c379a0000000000000000000000000000000000000000000000000000000008152600401610e7d906130ac565b60405180910390fd5b60045490506000429050600060055482610ea09190612c35565b90506000600660008581526020019081526020016000209050838160000181905550338160010160006101000a81548173ffffffffffffffffffffffffffffffffffffffff021916908373ffffffffffffffffffffffffffffffffffffffff16021790555088816002019080519060200190610f1d929190611935565b5087816003019080519060200190610f369291906119bf565b5086816004019080519060200190610f4f929190611a0c565b5085816005019080519060200190610f68929190611a65565b5082816006018190555081816007018190555084816008019081610f8c919061326e565b5060008160090160006101000a81548160ff02191690831515021790555060008160090160016101000a81548160ff0219169083151502179055507f7d84a6263ae0d98d3329bd7b46bb4e8d6f98cd35a7adb45c274c8b7fd5ebd5e084338b8b8b8b89898d60405161100699989796959493929190613340565b60405180910390a160046000815480929190611021906133f0565b919050555050505095945050505050565b600060066000848152602001908152602001600020600c0160008373ffffffffffffffffffffffffffffffffffffffff1673ffffffffffffffffffffffffffffffffffffffff16815260200190815260200160002060009054906101000a900460ff16905092915050565b600160009054906101000a900473ffffffffffffffffffffffffffffffffffffffff1681565b6110cb6117e2565b6110d56000611869565b565b60008060009054906101000a900473ffffffffffffffffffffffffffffffffffffffff16905090565b606060066000838152602001908152602001600020600501805480602002602001604051908101604052809291908181526020016000905b828210156111e457838290600052602060002001805461115790612ab1565b80601f016020809104026020016040519081016040528092919081815260200182805461118390612ab1565b80156111d05780601f106111a5576101008083540402835291602001916111d0565b820191906000526020600020905b8154815290600101906020018083116111b357829003601f168201915b505050505081526020019060010190611138565b505050509050919050565b6000600160009054906101000a900473ffffffffffffffffffffffffffffffffffffffff1673ffffffffffffffffffffffffffffffffffffffff16639b2b622d836040518263ffffffff1660e01b815260040161124c9190612819565b602060405180830381865afa158015611269573d6000803e3d6000fd5b505050506040513d601f19601f8201168201806040525081019061128d919061300d565b1561129b57600190506112a0565b600090505b919050565b600360009054906101000a900473ffffffffffffffffffffffffffffffffffffffff1681565b600160009054906101000a900473ffffffffffffffffffffffffffffffffffffffff1673ffffffffffffffffffffffffffffffffffffffff16639b2b622d336040518263ffffffff1660e01b81526004016113269190612819565b602060405180830381865afa158015611343573d6000803e3d6000fd5b505050506040513d601f19601f82011682018060405250810190611367919061300d565b6113a6576040517f08c379a000000000000000000000000000000000000000000000000000000000815260040161139d906130ac565b60405180910390fd5b60006006600084815260200190815260200160002090506000816006015411611404576040517f08c379a00000000000000000000000000000000000000000000000000000000081526004016113fb906134aa565b60405180910390fd5b806006015442101561144b576040517f08c379a000000000000000000000000000000000000000000000000000000000815260040161144290613516565b60405180910390fd5b8060070154421115611492576040517f08c379a000000000000000000000000000000000000000000000000000000000815260040161148990613582565b60405180910390fd5b80600c0160003373ffffffffffffffffffffffffffffffffffffffff1673ffffffffffffffffffffffffffffffffffffffff16815260200190815260200160002060009054906101000a900460ff1615611521576040517f08c379a0000000000000000000000000000000000000000000000000000000008152600401611518906135ee565b60405180910390fd5b600061152c336111ef565b905060008111611571576040517f08c379a000000000000000000000000000000000000000000000000000000000815260040161156890613680565b60405180910390fd5b600182600c0160003373ffffffffffffffffffffffffffffffffffffffff1673ffffffffffffffffffffffffffffffffffffffff16815260200190815260200160002060006101000a81548160ff02191690831515021790555082156115f1578082600a0160008282546115e59190612c35565b9250508190555061160d565b8082600b0160008282546116059190612c35565b925050819055505b7f7c2de587c00d75474a0c6c6fa96fd3b45dc974cd4e8a75f712bb84c950dce1b58433858460405161164294939291906136a0565b60405180910390a150505050565b6116586117e2565b600060066000848152602001908152602001600020905060008160060154116116b6576040517f08c379a00000000000000000000000000000000000000000000000000000000081526004016116ad906134aa565b60405180910390fd5b8060090160009054906101000a900460ff1615611708576040517f08c379a00000000000000000000000000000000000000000000000000000000081526004016116ff90612b54565b60405180910390fd5b8060070154421061174e576040517f08c379a000000000000000000000000000000000000000000000000000000000815260040161174590613757565b60405180910390fd5b818160070181905550505050565b6117646117e2565b600073ffffffffffffffffffffffffffffffffffffffff168173ffffffffffffffffffffffffffffffffffffffff16036117d65760006040517f1e4fbdf70000000000000000000000000000000000000000000000000000000081526004016117cd9190612819565b60405180910390fd5b6117df81611869565b50565b6117ea61192d565b73ffffffffffffffffffffffffffffffffffffffff166118086110d7565b73ffffffffffffffffffffffffffffffffffffffff16146118675761182b61192d565b6040517f118cdaa700000000000000000000000000000000000000000000000000000000815260040161185e9190612819565b60405180910390fd5b565b60008060009054906101000a900473ffffffffffffffffffffffffffffffffffffffff169050816000806101000a81548173ffffffffffffffffffffffffffffffffffffffff021916908373ffffffffffffffffffffffffffffffffffffffff1602179055508173ffffffffffffffffffffffffffffffffffffffff168173ffffffffffffffffffffffffffffffffffffffff167f8be0079c531659141344cd1fd0a4f28419497f9722a3daafe3b4186f6b6457e060405160405180910390a35050565b600033905090565b8280548282559060005260206000209081019282156119ae579160200282015b828111156119ad5782518260006101000a81548173ffffffffffffffffffffffffffffffffffffffff021916908373ffffffffffffffffffffffffffffffffffffffff16021790555091602001919060010190611955565b5b5090506119bb9190611abe565b5090565b8280548282559060005260206000209081019282156119fb579160200282015b828111156119fa5782518255916020019190600101906119df565b5b509050611a089190611abe565b5090565b828054828255906000526020600020908101928215611a54579160200282015b82811115611a53578251829081611a43919061326e565b5091602001919060010190611a2c565b5b509050611a619190611adb565b5090565b828054828255906000526020600020908101928215611aad579160200282015b82811115611aac578251829081611a9c91906137bd565b5091602001919060010190611a85565b5b509050611aba9190611aff565b5090565b5b80821115611ad7576000816000905550600101611abf565b5090565b5b80821115611afb5760008181611af29190611b23565b50600101611adc565b5090565b5b80821115611b1f5760008181611b169190611b63565b50600101611b00565b5090565b508054611b2f90612ab1565b6000825580601f10611b415750611b60565b601f016020900490600052602060002090810190611b5f9190611abe565b5b50565b508054611b6f90612ab1565b6000825580601f10611b815750611ba0565b601f016020900490600052602060002090810190611b9f9190611abe565b5b50565b6000604051905090565b600080fd5b600080fd5b6000819050919050565b611bca81611bb7565b8114611bd557600080fd5b50565b600081359050611be781611bc1565b92915050565b600060208284031215611c0357611c02611bad565b5b6000611c1184828501611bd8565b91505092915050565b611c2381611bb7565b82525050565b600073ffffffffffffffffffffffffffffffffffffffff82169050919050565b6000611c5482611c29565b9050919050565b611c6481611c49565b82525050565b600081519050919050565b600082825260208201905092915050565b60005b83811015611ca4578082015181840152602081019050611c89565b60008484015250505050565b6000601f19601f8301169050919050565b6000611ccc82611c6a565b611cd68185611c75565b9350611ce6818560208601611c86565b611cef81611cb0565b840191505092915050565b60008115159050919050565b611d0f81611cfa565b82525050565b600061012082019050611d2b600083018c611c1a565b611d38602083018b611c5b565b611d45604083018a611c1a565b611d526060830189611c1a565b8181036080830152611d648188611cc1565b9050611d7360a0830187611d06565b611d8060c0830186611d06565b611d8d60e0830185611c1a565b611d9b610100830184611c1a565b9a9950505050505050505050565b600081519050919050565b600082825260208201905092915050565b6000819050602082019050919050565b611dde81611bb7565b82525050565b6000611df08383611dd5565b60208301905092915050565b6000602082019050919050565b6000611e1482611da9565b611e1e8185611db4565b9350611e2983611dc5565b8060005b83811015611e5a578151611e418882611de4565b9750611e4c83611dfc565b925050600181019050611e2d565b5085935050505092915050565b60006020820190508181036000830152611e818184611e09565b905092915050565b6000602082019050611e9e6000830184611c1a565b92915050565b6000611eaf82611c29565b9050919050565b611ebf81611ea4565b82525050565b6000602082019050611eda6000830184611eb6565b92915050565b600081519050919050565b600082825260208201905092915050565b6000819050602082019050919050565b600082825260208201905092915050565b6000611f2882611c6a565b611f328185611f0c565b9350611f42818560208601611c86565b611f4b81611cb0565b840191505092915050565b6000611f628383611f1d565b905092915050565b6000602082019050919050565b6000611f8282611ee0565b611f8c8185611eeb565b935083602082028501611f9e85611efc565b8060005b85811015611fda5784840389528151611fbb8582611f56565b9450611fc683611f6a565b925060208a01995050600181019050611fa2565b50829750879550505050505092915050565b600060208201905081810360008301526120068184611f77565b905092915050565b600081519050919050565b600082825260208201905092915050565b6000819050602082019050919050565b61204381611c49565b82525050565b6000612055838361203a565b60208301905092915050565b6000602082019050919050565b60006120798261200e565b6120838185612019565b935061208e8361202a565b8060005b838110156120bf5781516120a68882612049565b97506120b183612061565b925050600181019050612092565b5085935050505092915050565b600060208201905081810360008301526120e6818461206e565b905092915050565b600080fd5b7f4e487b7100000000000000000000000000000000000000000000000000000000600052604160045260246000fd5b61212b82611cb0565b810181811067ffffffffffffffff8211171561214a576121496120f3565b5b80604052505050565b600061215d611ba3565b90506121698282612122565b919050565b600067ffffffffffffffff821115612189576121886120f3565b5b602082029050602081019050919050565b600080fd5b6121a881611c49565b81146121b357600080fd5b50565b6000813590506121c58161219f565b92915050565b60006121de6121d98461216e565b612153565b905080838252602082019050602084028301858111156122015761220061219a565b5b835b8181101561222a578061221688826121b6565b845260208401935050602081019050612203565b5050509392505050565b600082601f830112612249576122486120ee565b5b81356122598482602086016121cb565b91505092915050565b600067ffffffffffffffff82111561227d5761227c6120f3565b5b602082029050602081019050919050565b60006122a161229c84612262565b612153565b905080838252602082019050602084028301858111156122c4576122c361219a565b5b835b818110156122ed57806122d98882611bd8565b8452602084019350506020810190506122c6565b5050509392505050565b600082601f83011261230c5761230b6120ee565b5b813561231c84826020860161228e565b91505092915050565b600067ffffffffffffffff8211156123405761233f6120f3565b5b602082029050602081019050919050565b600080fd5b600067ffffffffffffffff821115612371576123706120f3565b5b61237a82611cb0565b9050602081019050919050565b82818337600083830152505050565b60006123a96123a484612356565b612153565b9050828152602081018484840111156123c5576123c4612351565b5b6123d0848285612387565b509392505050565b600082601f8301126123ed576123ec6120ee565b5b81356123fd848260208601612396565b91505092915050565b600061241961241484612325565b612153565b9050808382526020820190506020840283018581111561243c5761243b61219a565b5b835b8181101561248357803567ffffffffffffffff811115612461576124606120ee565b5b80860161246e89826123d8565b8552602085019450505060208101905061243e565b5050509392505050565b600082601f8301126124a2576124a16120ee565b5b81356124b2848260208601612406565b91505092915050565b600067ffffffffffffffff8211156124d6576124d56120f3565b5b602082029050602081019050919050565b600067ffffffffffffffff821115612502576125016120f3565b5b61250b82611cb0565b9050602081019050919050565b600061252b612526846124e7565b612153565b90508281526020810184848401111561254757612546612351565b5b612552848285612387565b509392505050565b600082601f83011261256f5761256e6120ee565b5b813561257f848260208601612518565b91505092915050565b600061259b612596846124bb565b612153565b905080838252602082019050602084028301858111156125be576125bd61219a565b5b835b8181101561260557803567ffffffffffffffff8111156125e3576125e26120ee565b5b8086016125f0898261255a565b855260208501945050506020810190506125c0565b5050509392505050565b600082601f830112612624576126236120ee565b5b8135612634848260208601612588565b91505092915050565b600080600080600060a0868803121561265957612658611bad565b5b600086013567ffffffffffffffff81111561267757612676611bb2565b5b61268388828901612234565b955050602086013567ffffffffffffffff8111156126a4576126a3611bb2565b5b6126b0888289016122f7565b945050604086013567ffffffffffffffff8111156126d1576126d0611bb2565b5b6126dd8882890161248d565b935050606086013567ffffffffffffffff8111156126fe576126fd611bb2565b5b61270a8882890161260f565b925050608086013567ffffffffffffffff81111561272b5761272a611bb2565b5b612737888289016123d8565b9150509295509295909350565b6000806040838503121561275b5761275a611bad565b5b600061276985828601611bd8565b925050602061277a858286016121b6565b9150509250929050565b60006020820190506127996000830184611d06565b92915050565b6000819050919050565b60006127c46127bf6127ba84611c29565b61279f565b611c29565b9050919050565b60006127d6826127a9565b9050919050565b60006127e8826127cb565b9050919050565b6127f8816127dd565b82525050565b600060208201905061281360008301846127ef565b92915050565b600060208201905061282e6000830184611c5b565b92915050565b600081519050919050565b600082825260208201905092915050565b6000819050602082019050919050565b600081519050919050565b600082825260208201905092915050565b600061288782612860565b612891818561286b565b93506128a1818560208601611c86565b6128aa81611cb0565b840191505092915050565b60006128c1838361287c565b905092915050565b6000602082019050919050565b60006128e182612834565b6128eb818561283f565b9350836020820285016128fd85612850565b8060005b85811015612939578484038952815161291a85826128b5565b9450612925836128c9565b925060208a01995050600181019050612901565b50829750879550505050505092915050565b6000602082019050818103600083015261296581846128d6565b905092915050565b60006020828403121561298357612982611bad565b5b6000612991848285016121b6565b91505092915050565b60006129a5826127cb565b9050919050565b6129b58161299a565b82525050565b60006020820190506129d060008301846129ac565b92915050565b6129df81611cfa565b81146129ea57600080fd5b50565b6000813590506129fc816129d6565b92915050565b60008060408385031215612a1957612a18611bad565b5b6000612a2785828601611bd8565b9250506020612a38858286016129ed565b9150509250929050565b60008060408385031215612a5957612a58611bad565b5b6000612a6785828601611bd8565b9250506020612a7885828601611bd8565b9150509250929050565b7f4e487b7100000000000000000000000000000000000000000000000000000000600052602260045260246000fd5b60006002820490506001821680612ac957607f821691505b602082108103612adc57612adb612a82565b5b50919050565b7f476f7665726e616e63653a2050726f706f73616c20616c72656164792065786560008201527f6375746564000000000000000000000000000000000000000000000000000000602082015250565b6000612b3e602583611c75565b9150612b4982612ae2565b604082019050919050565b60006020820190508181036000830152612b6d81612b31565b9050919050565b7f476f7665726e616e63653a20566f74696e6720706572696f64206e6f7420656e60008201527f6465640000000000000000000000000000000000000000000000000000000000602082015250565b6000612bd0602383611c75565b9150612bdb82612b74565b604082019050919050565b60006020820190508181036000830152612bff81612bc3565b9050919050565b7f4e487b7100000000000000000000000000000000000000000000000000000000600052601160045260246000fd5b6000612c4082611bb7565b9150612c4b83611bb7565b9250828201905080821115612c6357612c62612c06565b5b92915050565b600081519050612c7881611bc1565b92915050565b600060208284031215612c9457612c93611bad565b5b6000612ca284828501612c69565b91505092915050565b7f476f7665726e616e63653a204e6f20766f74696e67206d656d6265727320657860008201527f6973740000000000000000000000000000000000000000000000000000000000602082015250565b6000612d07602383611c75565b9150612d1282612cab565b604082019050919050565b60006020820190508181036000830152612d3681612cfa565b9050919050565b6000612d4882611bb7565b9150612d5383611bb7565b9250828202612d6181611bb7565b91508282048414831517612d7857612d77612c06565b5b5092915050565b7f476f7665726e616e63653a2051756f72756d206e6f7420726561636865640000600082015250565b6000612db5601e83611c75565b9150612dc082612d7f565b602082019050919050565b60006020820190508181036000830152612de481612da8565b9050919050565b7f476f7665726e616e63653a2050726f706f73616c20646964206e6f742070617360008201527f7300000000000000000000000000000000000000000000000000000000000000602082015250565b6000612e47602183611c75565b9150612e5282612deb565b604082019050919050565b60006020820190508181036000830152612e7681612e3a565b9050919050565b7f4e487b7100000000000000000000000000000000000000000000000000000000600052603260045260246000fd5b600081905092915050565b60008190508160005260206000209050919050565b60008154612ed981612ab1565b612ee38186612eac565b94506001821660008114612efe5760018114612f1357612f46565b60ff1983168652811515820286019350612f46565b612f1c85612eb7565b60005b83811015612f3e57815481890152600182019150602081019050612f1f565b838801955050505b50505092915050565b6000612f5b8284612ecc565b915081905092915050565b7f476f7665726e616e63653a2050726f706f73616c20657865637574696f6e206660008201527f61696c6564000000000000000000000000000000000000000000000000000000602082015250565b6000612fc2602583611c75565b9150612fcd82612f66565b604082019050919050565b60006020820190508181036000830152612ff181612fb5565b9050919050565b600081519050613007816129d6565b92915050565b60006020828403121561302357613022611bad565b5b600061303184828501612ff8565b91505092915050565b7f476f7665726e616e63653a2043616c6c6572206973206e6f74206120766f746960008201527f6e67206d656d6265720000000000000000000000000000000000000000000000602082015250565b6000613096602983611c75565b91506130a18261303a565b604082019050919050565b600060208201905081810360008301526130c581613089565b9050919050565b60008190508160005260206000209050919050565b60006020601f8301049050919050565b600082821b905092915050565b60006008830261312e7fffffffffffffffffffffffffffffffffffffffffffffffffffffffffffffffff826130f1565b61313886836130f1565b95508019841693508086168417925050509392505050565b600061316b61316661316184611bb7565b61279f565b611bb7565b9050919050565b6000819050919050565b61318583613150565b61319961319182613172565b8484546130fe565b825550505050565b600090565b6131ae6131a1565b6131b981848461317c565b505050565b5b818110156131dd576131d26000826131a6565b6001810190506131bf565b5050565b601f821115613222576131f3816130cc565b6131fc846130e1565b8101602085101561320b578190505b61321f613217856130e1565b8301826131be565b50505b505050565b600082821c905092915050565b600061324560001984600802613227565b1980831691505092915050565b600061325e8383613234565b9150826002028217905092915050565b61327782611c6a565b67ffffffffffffffff8111156132905761328f6120f3565b5b61329a8254612ab1565b6132a58282856131e1565b600060209050601f8311600181146132d857600084156132c6578287015190505b6132d08582613252565b865550613338565b601f1984166132e6866130cc565b60005b8281101561330e578489015182556001820191506020850194506020810190506132e9565b8683101561332b5784890151613327601f891682613234565b8355505b6001600288020188555050505b505050505050565b600061012082019050613356600083018c611c1a565b613363602083018b611c5b565b8181036040830152613375818a61206e565b905081810360608301526133898189611e09565b9050818103608083015261339d8188611f77565b905081810360a08301526133b181876128d6565b90506133c060c0830186611c1a565b6133cd60e0830185611c1a565b8181036101008301526133e08184611cc1565b90509a9950505050505050505050565b60006133fb82611bb7565b91507fffffffffffffffffffffffffffffffffffffffffffffffffffffffffffffffff820361342d5761342c612c06565b5b600182019050919050565b7f476f7665726e616e63653a2050726f706f73616c20646f6573206e6f7420657860008201527f6973740000000000000000000000000000000000000000000000000000000000602082015250565b6000613494602383611c75565b915061349f82613438565b604082019050919050565b600060208201905081810360008301526134c381613487565b9050919050565b7f476f7665726e616e63653a2050726f706f73616c206e6f742073746172746564600082015250565b6000613500602083611c75565b915061350b826134ca565b602082019050919050565b6000602082019050818103600083015261352f816134f3565b9050919050565b7f476f7665726e616e63653a2050726f706f73616c206e6f742061637469766500600082015250565b600061356c601f83611c75565b915061357782613536565b602082019050919050565b6000602082019050818103600083015261359b8161355f565b9050919050565b7f476f7665726e616e63653a20566f74657220616c726561647920766f74656400600082015250565b60006135d8601f83611c75565b91506135e3826135a2565b602082019050919050565b60006020820190508181036000830152613607816135cb565b9050919050565b7f476f7665726e616e63653a20566f74657220686173206e6f20766f74696e672060008201527f706f776572000000000000000000000000000000000000000000000000000000602082015250565b600061366a602583611c75565b91506136758261360e565b604082019050919050565b600060208201905081810360008301526136998161365d565b9050919050565b60006080820190506136b56000830187611c1a565b6136c26020830186611c5b565b6136cf6040830185611d06565b6136dc6060830184611c1a565b95945050505050565b7f476f7665726e616e63653a2043616e6e6f742075706461746520656e6454696d60008201527f6520616674657220697420686173207061737365640000000000000000000000602082015250565b6000613741603583611c75565b915061374c826136e5565b604082019050919050565b6000602082019050818103600083015261377081613734565b9050919050565b601f8211156137b85761378981612eb7565b613792846130e1565b810160208510156137a1578190505b6137b56137ad856130e1565b8301826131be565b50505b505050565b6137c682612860565b67ffffffffffffffff8111156137df576137de6120f3565b5b6137e98254612ab1565b6137f4828285613777565b600060209050601f8311600181146138275760008415613815578287015190505b61381f8582613252565b865550613887565b601f19841661383586612eb7565b60005b8281101561385d57848901518255600182019150602085019450602081019050613838565b8683101561387a5784890151613876601f891682613234565b8355505b6001600288020188555050505b50505050505056fea264697066735822122032c21d6b21b029c2c133e9eeb92edb88f8105bf54570652aea489afb322b4d5764736f6c634300081c0033",
  "linkReferences": {},
  "deployedLinkReferences": {}
}