{
  "_format": "hh-sol-artifact-1",
  "contractName": "GovernanceContract",
  "sourceName": "contracts/GovernanceContract.sol",
  "abi": [
    {
      "inputs": [
        {
          "internalType": "address",
          "name": "_membershipContractAddress",
          "type": "address"
        },
        {
          "internalType": "address",
          "name": "_incomeManagementContractAddress",
          "type": "address"
        },
        {
          "internalType": "address",
          "name": "_paymentContractAddress",
          "type": "address"
        },
        {
          "internalType": "address",
          "name": "initialOwner",
          "type": "address"
        }
      ],
      "stateMutability": "nonpayable",
      "type": "constructor"
    },
    {
      "inputs": [
        {
          "internalType": "address",
          "name": "owner",
          "type": "address"
        }
      ],
      "name": "OwnableInvalidOwner",
      "type": "error"
    },
    {
      "inputs": [
        {
          "internalType": "address",
          "name": "account",
          "type": "address"
        }
      ],
      "name": "OwnableUnauthorizedAccount",
      "type": "error"
    },
    {
      "anonymous": false,
      "inputs": [
        {
          "indexed": true,
          "internalType": "address",
          "name": "previousOwner",
          "type": "address"
        },
        {
          "indexed": true,
          "internalType": "address",
          "name": "newOwner",
          "type": "address"
        }
      ],
      "name": "OwnershipTransferred",
      "type": "event"
    },
    {
      "anonymous": false,
      "inputs": [
        {
          "indexed": false,
          "internalType": "uint256",
          "name": "proposalId",
          "type": "uint256"
        }
      ],
      "name": "ProposalCanceled",
      "type": "event"
    },
    {
      "anonymous": false,
      "inputs": [
        {
          "indexed": false,
          "internalType": "uint256",
          "name": "proposalId",
          "type": "uint256"
        },
        {
          "indexed": false,
          "internalType": "address",
          "name": "proposer",
          "type": "address"
        },
        {
          "indexed": false,
          "internalType": "address[]",
          "name": "targets",
          "type": "address[]"
        },
        {
          "indexed": false,
          "internalType": "uint256[]",
          "name": "values",
          "type": "uint256[]"
        },
        {
          "indexed": false,
          "internalType": "string[]",
          "name": "signatures",
          "type": "string[]"
        },
        {
          "indexed": false,
          "internalType": "bytes[]",
          "name": "calldatas",
          "type": "bytes[]"
        },
        {
          "indexed": false,
          "internalType": "uint256",
          "name": "startTime",
          "type": "uint256"
        },
        {
          "indexed": false,
          "internalType": "uint256",
          "name": "endTime",
          "type": "uint256"
        },
        {
          "indexed": false,
          "internalType": "string",
          "name": "description",
          "type": "string"
        }
      ],
      "name": "ProposalCreated",
      "type": "event"
    },
    {
      "anonymous": false,
      "inputs": [
        {
          "indexed": false,
          "internalType": "uint256",
          "name": "proposalId",
          "type": "uint256"
        }
      ],
      "name": "ProposalExecuted",
      "type": "event"
    },
    {
      "anonymous": false,
      "inputs": [
        {
          "indexed": false,
          "internalType": "uint256",
          "name": "proposalId",
          "type": "uint256"
        },
        {
          "indexed": false,
          "internalType": "address",
          "name": "voter",
          "type": "address"
        },
        {
          "indexed": false,
          "internalType": "bool",
          "name": "support",
          "type": "bool"
        },
        {
          "indexed": false,
          "internalType": "uint256",
          "name": "weight",
          "type": "uint256"
        }
      ],
      "name": "Voted",
      "type": "event"
    },
    {
      "inputs": [
        {
          "internalType": "address[]",
          "name": "targets",
          "type": "address[]"
        },
        {
          "internalType": "uint256[]",
          "name": "values",
          "type": "uint256[]"
        },
        {
          "internalType": "string[]",
          "name": "signatures",
          "type": "string[]"
        },
        {
          "internalType": "bytes[]",
          "name": "calldatas",
          "type": "bytes[]"
        },
        {
          "internalType": "string",
          "name": "description",
          "type": "string"
        }
      ],
      "name": "createProposal",
      "outputs": [
        {
          "internalType": "uint256",
          "name": "proposalId",
          "type": "uint256"
        }
      ],
      "stateMutability": "nonpayable",
      "type": "function"
    },
    {
      "inputs": [
        {
          "internalType": "uint256",
          "name": "proposalId",
          "type": "uint256"
        }
      ],
      "name": "executeProposal",
      "outputs": [],
      "stateMutability": "payable",
      "type": "function"
    },
    {
      "inputs": [
        {
          "internalType": "uint256",
          "name": "proposalId",
          "type": "uint256"
        }
      ],
      "name": "getProposalCalldatas",
      "outputs": [
        {
          "internalType": "bytes[]",
          "name": "",
          "type": "bytes[]"
        }
      ],
      "stateMutability": "view",
      "type": "function"
    },
    {
      "inputs": [
        {
          "internalType": "uint256",
          "name": "proposalId",
          "type": "uint256"
        }
      ],
      "name": "getProposalCoreDetails",
      "outputs": [
        {
          "internalType": "uint256",
          "name": "id",
          "type": "uint256"
        },
        {
          "internalType": "address",
          "name": "proposer",
          "type": "address"
        },
        {
          "internalType": "uint256",
          "name": "startTime",
          "type": "uint256"
        },
        {
          "internalType": "uint256",
          "name": "endTime",
          "type": "uint256"
        },
        {
          "internalType": "string",
          "name": "description",
          "type": "string"
        },
        {
          "internalType": "bool",
          "name": "executed",
          "type": "bool"
        },
        {
          "internalType": "bool",
          "name": "canceled",
          "type": "bool"
        },
        {
          "internalType": "uint256",
          "name": "forVotes",
          "type": "uint256"
        },
        {
          "internalType": "uint256",
          "name": "againstVotes",
          "type": "uint256"
        }
      ],
      "stateMutability": "view",
      "type": "function"
    },
    {
      "inputs": [
        {
          "internalType": "uint256",
          "name": "proposalId",
          "type": "uint256"
        }
      ],
      "name": "getProposalSignatures",
      "outputs": [
        {
          "internalType": "string[]",
          "name": "",
          "type": "string[]"
        }
      ],
      "stateMutability": "view",
      "type": "function"
    },
    {
      "inputs": [
        {
          "internalType": "uint256",
          "name": "proposalId",
          "type": "uint256"
        }
      ],
      "name": "getProposalTargets",
      "outputs": [
        {
          "internalType": "address[]",
          "name": "",
          "type": "address[]"
        }
      ],
      "stateMutability": "view",
      "type": "function"
    },
    {
      "inputs": [
        {
          "internalType": "uint256",
          "name": "proposalId",
          "type": "uint256"
        }
      ],
      "name": "getProposalValues",
      "outputs": [
        {
          "internalType": "uint256[]",
          "name": "",
          "type": "uint256[]"
        }
      ],
      "stateMutability": "view",
      "type": "function"
    },
    {
      "inputs": [
        {
          "internalType": "address",
          "name": "account",
          "type": "address"
        }
      ],
      "name": "getVotes",
      "outputs": [
        {
          "internalType": "uint256",
          "name": "",
          "type": "uint256"
        }
      ],
      "stateMutability": "view",
      "type": "function"
    },
    {
      "inputs": [
        {
          "internalType": "uint256",
          "name": "proposalId",
          "type": "uint256"
        },
        {
          "internalType": "address",
          "name": "voter",
          "type": "address"
        }
      ],
      "name": "hasVoted",
      "outputs": [
        {
          "internalType": "bool",
          "name": "",
          "type": "bool"
        }
      ],
      "stateMutability": "view",
      "type": "function"
    },
    {
      "inputs": [],
      "name": "incomeManagementContract",
      "outputs": [
        {
          "internalType": "address payable",
          "name": "",
          "type": "address"
        }
      ],
      "stateMutability": "view",
      "type": "function"
    },
    {
      "inputs": [],
      "name": "membershipContract",
      "outputs": [
        {
          "internalType": "contract MembershipContract",
          "name": "",
          "type": "address"
        }
      ],
      "stateMutability": "view",
      "type": "function"
    },
    {
      "inputs": [],
      "name": "owner",
      "outputs": [
        {
          "internalType": "address",
          "name": "",
          "type": "address"
        }
      ],
      "stateMutability": "view",
      "type": "function"
    },
    {
      "inputs": [],
      "name": "paymentContract",
      "outputs": [
        {
          "internalType": "contract PaymentContract",
          "name": "",
          "type": "address"
        }
      ],
      "stateMutability": "view",
      "type": "function"
    },
    {
      "inputs": [],
      "name": "proposalCounter",
      "outputs": [
        {
          "internalType": "uint256",
          "name": "",
          "type": "uint256"
        }
      ],
      "stateMutability": "view",
      "type": "function"
    },
    {
      "inputs": [
        {
          "internalType": "uint256",
          "name": "",
          "type": "uint256"
        }
      ],
      "name": "proposals",
      "outputs": [
        {
          "internalType": "uint256",
          "name": "id",
          "type": "uint256"
        },
        {
          "internalType": "address",
          "name": "proposer",
          "type": "address"
        },
        {
          "internalType": "uint256",
          "name": "startTime",
          "type": "uint256"
        },
        {
          "internalType": "uint256",
          "name": "endTime",
          "type": "uint256"
        },
        {
          "internalType": "string",
          "name": "description",
          "type": "string"
        },
        {
          "internalType": "bool",
          "name": "executed",
          "type": "bool"
        },
        {
          "internalType": "bool",
          "name": "canceled",
          "type": "bool"
        },
        {
          "internalType": "uint256",
          "name": "forVotes",
          "type": "uint256"
        },
        {
          "internalType": "uint256",
          "name": "againstVotes",
          "type": "uint256"
        }
      ],
      "stateMutability": "view",
      "type": "function"
    },
    {
      "inputs": [],
      "name": "renounceOwnership",
      "outputs": [],
      "stateMutability": "nonpayable",
      "type": "function"
    },
    {
      "inputs": [
        {
          "internalType": "address",
          "name": "newOwner",
          "type": "address"
        }
      ],
      "name": "transferOwnership",
      "outputs": [],
      "stateMutability": "nonpayable",
      "type": "function"
    },
    {
      "inputs": [
        {
          "internalType": "uint256",
          "name": "proposalId",
          "type": "uint256"
        },
        {
          "internalType": "bool",
          "name": "support",
          "type": "bool"
        }
      ],
      "name": "vote",
      "outputs": [],
      "stateMutability": "nonpayable",
      "type": "function"
    },
    {
      "inputs": [],
      "name": "votingPeriod",
      "outputs": [
        {
          "internalType": "uint256",
          "name": "",
          "type": "uint256"
        }
      ],
      "stateMutability": "view",
      "type": "function"
    }
  ],
  "bytecode": "0x608060405262093a8060055534801561001757600080fd5b50604051613d16380380613d16833981810160405281019061003991906103fc565b80600073ffffffffffffffffffffffffffffffffffffffff168173ffffffffffffffffffffffffffffffffffffffff16036100ac5760006040517f1e4fbdf70000000000000000000000000000000000000000000000000000000081526004016100a39190610472565b60405180910390fd5b6100bb816102d560201b60201c565b50600073ffffffffffffffffffffffffffffffffffffffff168473ffffffffffffffffffffffffffffffffffffffff160361012b576040517f08c379a000000000000000000000000000000000000000000000000000000000815260040161012290610510565b60405180910390fd5b600073ffffffffffffffffffffffffffffffffffffffff168373ffffffffffffffffffffffffffffffffffffffff160361019a576040517f08c379a0000000000000000000000000000000000000000000000000000000008152600401610191906105a2565b60405180910390fd5b600073ffffffffffffffffffffffffffffffffffffffff168273ffffffffffffffffffffffffffffffffffffffff1603610209576040517f08c379a000000000000000000000000000000000000000000000000000000000815260040161020090610634565b60405180910390fd5b83600160006101000a81548173ffffffffffffffffffffffffffffffffffffffff021916908373ffffffffffffffffffffffffffffffffffffffff16021790555082600260006101000a81548173ffffffffffffffffffffffffffffffffffffffff021916908373ffffffffffffffffffffffffffffffffffffffff16021790555081600360006101000a81548173ffffffffffffffffffffffffffffffffffffffff021916908373ffffffffffffffffffffffffffffffffffffffff16021790555050505050610654565b60008060009054906101000a900473ffffffffffffffffffffffffffffffffffffffff169050816000806101000a81548173ffffffffffffffffffffffffffffffffffffffff021916908373ffffffffffffffffffffffffffffffffffffffff1602179055508173ffffffffffffffffffffffffffffffffffffffff168173ffffffffffffffffffffffffffffffffffffffff167f8be0079c531659141344cd1fd0a4f28419497f9722a3daafe3b4186f6b6457e060405160405180910390a35050565b600080fd5b600073ffffffffffffffffffffffffffffffffffffffff82169050919050565b60006103c98261039e565b9050919050565b6103d9816103be565b81146103e457600080fd5b50565b6000815190506103f6816103d0565b92915050565b6000806000806080858703121561041657610415610399565b5b6000610424878288016103e7565b9450506020610435878288016103e7565b9350506040610446878288016103e7565b9250506060610457878288016103e7565b91505092959194509250565b61046c816103be565b82525050565b60006020820190506104876000830184610463565b92915050565b600082825260208201905092915050565b7f476f7665726e616e63653a20496e76616c6964204d656d62657273686970436f60008201527f6e74726163742061646472657373000000000000000000000000000000000000602082015250565b60006104fa602e8361048d565b91506105058261049e565b604082019050919050565b60006020820190508181036000830152610529816104ed565b9050919050565b7f476f7665726e616e63653a20496e76616c696420496e636f6d654d616e61676560008201527f6d656e74436f6e74726163742061646472657373000000000000000000000000602082015250565b600061058c60348361048d565b915061059782610530565b604082019050919050565b600060208201905081810360008301526105bb8161057f565b9050919050565b7f476f7665726e616e63653a20496e76616c6964205061796d656e74436f6e747260008201527f6163742061646472657373000000000000000000000000000000000000000000602082015250565b600061061e602b8361048d565b9150610629826105c2565b604082019050919050565b6000602082019050818103600083015261064d81610611565b9050919050565b6136b3806106636000396000f3fe6080604052600436106101135760003560e01c80632e768ebd116100a057806394a761291161006457806394a76129146103dd5780639ab24eb01461041a5780639c91dd5614610457578063c9d27afe14610482578063f2fde38b146104ab57610113565b80632e768ebd146102f6578063438596321461033357806351ec8d1e14610370578063715018a61461039b5780638da5cb5b146103b257610113565b80630c0512e9116100e75780630c0512e91461020a5780630d61b519146102355780630ef8b7ab1461025157806316f2d7c01461027c57806324ecf717146102b957610113565b806238ec9914610118578063013cf08b1461015d57806301c17a70146101a257806302a251a3146101df575b600080fd5b34801561012457600080fd5b5061013f600480360381019061013a9190611aad565b6104d4565b60405161015499989796959493929190611bd5565b60405180910390f35b34801561016957600080fd5b50610184600480360381019061017f9190611aad565b610650565b60405161019999989796959493929190611bd5565b60405180910390f35b3480156101ae57600080fd5b506101c960048036038101906101c49190611aad565b610760565b6040516101d69190611d27565b60405180910390f35b3480156101eb57600080fd5b506101f46107ce565b6040516102019190611d49565b60405180910390f35b34801561021657600080fd5b5061021f6107d4565b60405161022c9190611d49565b60405180910390f35b61024f600480360381019061024a9190611aad565b6107da565b005b34801561025d57600080fd5b50610266610bbc565b6040516102739190611d85565b60405180910390f35b34801561028857600080fd5b506102a3600480360381019061029e9190611aad565b610be2565b6040516102b09190611eac565b60405180910390f35b3480156102c557600080fd5b506102e060048036038101906102db9190611aad565b610cd1565b6040516102ed9190611f8c565b60405180910390f35b34801561030257600080fd5b5061031d600480360381019061031891906124fd565b610d75565b60405161032a9190611d49565b60405180910390f35b34801561033f57600080fd5b5061035a60048036038101906103559190612604565b610ffe565b6040516103679190612644565b60405180910390f35b34801561037c57600080fd5b50610385611069565b60405161039291906126be565b60405180910390f35b3480156103a757600080fd5b506103b061108f565b005b3480156103be57600080fd5b506103c76110a3565b6040516103d491906126d9565b60405180910390f35b3480156103e957600080fd5b5061040460048036038101906103ff9190611aad565b6110cc565b604051610411919061280b565b60405180910390f35b34801561042657600080fd5b50610441600480360381019061043c919061282d565b6111bb565b60405161044e9190611d49565b60405180910390f35b34801561046357600080fd5b5061046c611271565b604051610479919061287b565b60405180910390f35b34801561048e57600080fd5b506104a960048036038101906104a491906128c2565b611297565b005b3480156104b757600080fd5b506104d260048036038101906104cd919061282d565b61161c565b005b60008060008060606000806000806000600660008c81526020019081526020016000209050600081600601540361053d57600080600080600080600080604051806020016040528060008152509392919099509950995099509950995099509950995050610643565b80600001548160010160009054906101000a900473ffffffffffffffffffffffffffffffffffffffff1682600601548360070154846008018560090160009054906101000a900460ff168660090160019054906101000a900460ff1687600a015488600b01548480546105af90612931565b80601f01602080910402602001604051908101604052809291908181526020018280546105db90612931565b80156106285780601f106105fd57610100808354040283529160200191610628565b820191906000526020600020905b81548152906001019060200180831161060b57829003601f168201915b50505050509450995099509950995099509950995099509950505b9193959799909294969850565b60066020528060005260406000206000915090508060000154908060010160009054906101000a900473ffffffffffffffffffffffffffffffffffffffff16908060060154908060070154908060080180546106ab90612931565b80601f01602080910402602001604051908101604052809291908181526020018280546106d790612931565b80156107245780601f106106f957610100808354040283529160200191610724565b820191906000526020600020905b81548152906001019060200180831161070757829003601f168201915b5050505050908060090160009054906101000a900460ff16908060090160019054906101000a900460ff169080600a01549080600b0154905089565b6060600660008381526020019081526020016000206003018054806020026020016040519081016040528092919081815260200182805480156107c257602002820191906000526020600020905b8154815260200190600101908083116107ae575b50505050509050919050565b60055481565b60045481565b60006006600083815260200190815260200160002090508060090160009054906101000a900460ff1615610843576040517f08c379a000000000000000000000000000000000000000000000000000000000815260040161083a906129d4565b60405180910390fd5b80600701544211610889576040517f08c379a000000000000000000000000000000000000000000000000000000000815260040161088090612a66565b60405180910390fd5b600081600b015482600a015461089f9190612ab5565b90506000600160009054906101000a900473ffffffffffffffffffffffffffffffffffffffff1673ffffffffffffffffffffffffffffffffffffffff16638b0cd0dd6040518163ffffffff1660e01b8152600401602060405180830381865afa158015610910573d6000803e3d6000fd5b505050506040513d601f19601f820116820180604052508101906109349190612afe565b905060008111610979576040517f08c379a000000000000000000000000000000000000000000000000000000000815260040161097090612b9d565b60405180910390fd5b806002836109879190612bbd565b116109c7576040517f08c379a00000000000000000000000000000000000000000000000000000000081526004016109be90612c4b565b60405180910390fd5b82600b015483600a015411610a11576040517f08c379a0000000000000000000000000000000000000000000000000000000008152600401610a0890612cdd565b60405180910390fd5b60018360090160006101000a81548160ff02191690831515021790555060005b8360020180549050811015610b7e57600080856002018381548110610a5957610a58612cfd565b5b9060005260206000200160009054906101000a900473ffffffffffffffffffffffffffffffffffffffff1673ffffffffffffffffffffffffffffffffffffffff16866003018481548110610ab057610aaf612cfd565b5b9060005260206000200154876005018581548110610ad157610ad0612cfd565b5b90600052602060002001604051610ae89190612dcf565b60006040518083038185875af1925050503d8060008114610b25576040519150601f19603f3d011682016040523d82523d6000602084013e610b2a565b606091505b509150915081610b6f576040517f08c379a0000000000000000000000000000000000000000000000000000000008152600401610b6690612e58565b60405180910390fd5b50508080600101915050610a31565b507f712ae1383f79ac853f8d882153778e0260ef8f03b504e2866e0593e04d2b291f84604051610bae9190611d49565b60405180910390a150505050565b600260009054906101000a900473ffffffffffffffffffffffffffffffffffffffff1681565b606060066000838152602001908152602001600020600401805480602002602001604051908101604052809291908181526020016000905b82821015610cc6578382906000526020600020018054610c3990612931565b80601f0160208091040260200160405190810160405280929190818152602001828054610c6590612931565b8015610cb25780601f10610c8757610100808354040283529160200191610cb2565b820191906000526020600020905b815481529060010190602001808311610c9557829003601f168201915b505050505081526020019060010190610c1a565b505050509050919050565b606060066000838152602001908152602001600020600201805480602002602001604051908101604052809291908181526020018280548015610d6957602002820191906000526020600020905b8160009054906101000a900473ffffffffffffffffffffffffffffffffffffffff1673ffffffffffffffffffffffffffffffffffffffff1681526020019060010190808311610d1f575b50505050509050919050565b6000600160009054906101000a900473ffffffffffffffffffffffffffffffffffffffff1673ffffffffffffffffffffffffffffffffffffffff16639b2b622d336040518263ffffffff1660e01b8152600401610dd291906126d9565b602060405180830381865afa158015610def573d6000803e3d6000fd5b505050506040513d601f19601f82011682018060405250810190610e139190612e8d565b610e52576040517f08c379a0000000000000000000000000000000000000000000000000000000008152600401610e4990612f2c565b60405180910390fd5b60045490506000429050600060055482610e6c9190612ab5565b90506000600660008581526020019081526020016000209050838160000181905550338160010160006101000a81548173ffffffffffffffffffffffffffffffffffffffff021916908373ffffffffffffffffffffffffffffffffffffffff16021790555088816002019080519060200190610ee99291906117f5565b5087816003019080519060200190610f0292919061187f565b5086816004019080519060200190610f1b9291906118cc565b5085816005019080519060200190610f34929190611925565b5082816006018190555081816007018190555084816008019081610f5891906130ee565b5060008160090160006101000a81548160ff02191690831515021790555060008160090160016101000a81548160ff0219169083151502179055507f7d84a6263ae0d98d3329bd7b46bb4e8d6f98cd35a7adb45c274c8b7fd5ebd5e084338b8b8b8b89898d604051610fd2999897969594939291906131c0565b60405180910390a160046000815480929190610fed90613270565b919050555050505095945050505050565b600060066000848152602001908152602001600020600c0160008373ffffffffffffffffffffffffffffffffffffffff1673ffffffffffffffffffffffffffffffffffffffff16815260200190815260200160002060009054906101000a900460ff16905092915050565b600160009054906101000a900473ffffffffffffffffffffffffffffffffffffffff1681565b6110976116a2565b6110a16000611729565b565b60008060009054906101000a900473ffffffffffffffffffffffffffffffffffffffff16905090565b606060066000838152602001908152602001600020600501805480602002602001604051908101604052809291908181526020016000905b828210156111b057838290600052602060002001805461112390612931565b80601f016020809104026020016040519081016040528092919081815260200182805461114f90612931565b801561119c5780601f106111715761010080835404028352916020019161119c565b820191906000526020600020905b81548152906001019060200180831161117f57829003601f168201915b505050505081526020019060010190611104565b505050509050919050565b6000600160009054906101000a900473ffffffffffffffffffffffffffffffffffffffff1673ffffffffffffffffffffffffffffffffffffffff16639b2b622d836040518263ffffffff1660e01b815260040161121891906126d9565b602060405180830381865afa158015611235573d6000803e3d6000fd5b505050506040513d601f19601f820116820180604052508101906112599190612e8d565b15611267576001905061126c565b600090505b919050565b600360009054906101000a900473ffffffffffffffffffffffffffffffffffffffff1681565b600160009054906101000a900473ffffffffffffffffffffffffffffffffffffffff1673ffffffffffffffffffffffffffffffffffffffff16639b2b622d336040518263ffffffff1660e01b81526004016112f291906126d9565b602060405180830381865afa15801561130f573d6000803e3d6000fd5b505050506040513d601f19601f820116820180604052508101906113339190612e8d565b611372576040517f08c379a000000000000000000000000000000000000000000000000000000000815260040161136990612f2c565b60405180910390fd5b600060066000848152602001908152602001600020905060008160060154116113d0576040517f08c379a00000000000000000000000000000000000000000000000000000000081526004016113c79061332a565b60405180910390fd5b8060060154421015611417576040517f08c379a000000000000000000000000000000000000000000000000000000000815260040161140e90613396565b60405180910390fd5b806007015442111561145e576040517f08c379a000000000000000000000000000000000000000000000000000000000815260040161145590613402565b60405180910390fd5b80600c0160003373ffffffffffffffffffffffffffffffffffffffff1673ffffffffffffffffffffffffffffffffffffffff16815260200190815260200160002060009054906101000a900460ff16156114ed576040517f08c379a00000000000000000000000000000000000000000000000000000000081526004016114e49061346e565b60405180910390fd5b60006114f8336111bb565b90506000811161153d576040517f08c379a000000000000000000000000000000000000000000000000000000000815260040161153490613500565b60405180910390fd5b600182600c0160003373ffffffffffffffffffffffffffffffffffffffff1673ffffffffffffffffffffffffffffffffffffffff16815260200190815260200160002060006101000a81548160ff02191690831515021790555082156115bd578082600a0160008282546115b19190612ab5565b925050819055506115d9565b8082600b0160008282546115d19190612ab5565b925050819055505b7f7c2de587c00d75474a0c6c6fa96fd3b45dc974cd4e8a75f712bb84c950dce1b58433858460405161160e9493929190613520565b60405180910390a150505050565b6116246116a2565b600073ffffffffffffffffffffffffffffffffffffffff168173ffffffffffffffffffffffffffffffffffffffff16036116965760006040517f1e4fbdf700000000000000000000000000000000000000000000000000000000815260040161168d91906126d9565b60405180910390fd5b61169f81611729565b50565b6116aa6117ed565b73ffffffffffffffffffffffffffffffffffffffff166116c86110a3565b73ffffffffffffffffffffffffffffffffffffffff1614611727576116eb6117ed565b6040517f118cdaa700000000000000000000000000000000000000000000000000000000815260040161171e91906126d9565b60405180910390fd5b565b60008060009054906101000a900473ffffffffffffffffffffffffffffffffffffffff169050816000806101000a81548173ffffffffffffffffffffffffffffffffffffffff021916908373ffffffffffffffffffffffffffffffffffffffff1602179055508173ffffffffffffffffffffffffffffffffffffffff168173ffffffffffffffffffffffffffffffffffffffff167f8be0079c531659141344cd1fd0a4f28419497f9722a3daafe3b4186f6b6457e060405160405180910390a35050565b600033905090565b82805482825590600052602060002090810192821561186e579160200282015b8281111561186d5782518260006101000a81548173ffffffffffffffffffffffffffffffffffffffff021916908373ffffffffffffffffffffffffffffffffffffffff16021790555091602001919060010190611815565b5b50905061187b919061197e565b5090565b8280548282559060005260206000209081019282156118bb579160200282015b828111156118ba57825182559160200191906001019061189f565b5b5090506118c8919061197e565b5090565b828054828255906000526020600020908101928215611914579160200282015b8281111561191357825182908161190391906130ee565b50916020019190600101906118ec565b5b509050611921919061199b565b5090565b82805482825590600052602060002090810192821561196d579160200282015b8281111561196c57825182908161195c91906135ab565b5091602001919060010190611945565b5b50905061197a91906119bf565b5090565b5b8082111561199757600081600090555060010161197f565b5090565b5b808211156119bb57600081816119b291906119e3565b5060010161199c565b5090565b5b808211156119df57600081816119d69190611a23565b506001016119c0565b5090565b5080546119ef90612931565b6000825580601f10611a015750611a20565b601f016020900490600052602060002090810190611a1f919061197e565b5b50565b508054611a2f90612931565b6000825580601f10611a415750611a60565b601f016020900490600052602060002090810190611a5f919061197e565b5b50565b6000604051905090565b600080fd5b600080fd5b6000819050919050565b611a8a81611a77565b8114611a9557600080fd5b50565b600081359050611aa781611a81565b92915050565b600060208284031215611ac357611ac2611a6d565b5b6000611ad184828501611a98565b91505092915050565b611ae381611a77565b82525050565b600073ffffffffffffffffffffffffffffffffffffffff82169050919050565b6000611b1482611ae9565b9050919050565b611b2481611b09565b82525050565b600081519050919050565b600082825260208201905092915050565b60005b83811015611b64578082015181840152602081019050611b49565b60008484015250505050565b6000601f19601f8301169050919050565b6000611b8c82611b2a565b611b968185611b35565b9350611ba6818560208601611b46565b611baf81611b70565b840191505092915050565b60008115159050919050565b611bcf81611bba565b82525050565b600061012082019050611beb600083018c611ada565b611bf8602083018b611b1b565b611c05604083018a611ada565b611c126060830189611ada565b8181036080830152611c248188611b81565b9050611c3360a0830187611bc6565b611c4060c0830186611bc6565b611c4d60e0830185611ada565b611c5b610100830184611ada565b9a9950505050505050505050565b600081519050919050565b600082825260208201905092915050565b6000819050602082019050919050565b611c9e81611a77565b82525050565b6000611cb08383611c95565b60208301905092915050565b6000602082019050919050565b6000611cd482611c69565b611cde8185611c74565b9350611ce983611c85565b8060005b83811015611d1a578151611d018882611ca4565b9750611d0c83611cbc565b925050600181019050611ced565b5085935050505092915050565b60006020820190508181036000830152611d418184611cc9565b905092915050565b6000602082019050611d5e6000830184611ada565b92915050565b6000611d6f82611ae9565b9050919050565b611d7f81611d64565b82525050565b6000602082019050611d9a6000830184611d76565b92915050565b600081519050919050565b600082825260208201905092915050565b6000819050602082019050919050565b600082825260208201905092915050565b6000611de882611b2a565b611df28185611dcc565b9350611e02818560208601611b46565b611e0b81611b70565b840191505092915050565b6000611e228383611ddd565b905092915050565b6000602082019050919050565b6000611e4282611da0565b611e4c8185611dab565b935083602082028501611e5e85611dbc565b8060005b85811015611e9a5784840389528151611e7b8582611e16565b9450611e8683611e2a565b925060208a01995050600181019050611e62565b50829750879550505050505092915050565b60006020820190508181036000830152611ec68184611e37565b905092915050565b600081519050919050565b600082825260208201905092915050565b6000819050602082019050919050565b611f0381611b09565b82525050565b6000611f158383611efa565b60208301905092915050565b6000602082019050919050565b6000611f3982611ece565b611f438185611ed9565b9350611f4e83611eea565b8060005b83811015611f7f578151611f668882611f09565b9750611f7183611f21565b925050600181019050611f52565b5085935050505092915050565b60006020820190508181036000830152611fa68184611f2e565b905092915050565b600080fd5b7f4e487b7100000000000000000000000000000000000000000000000000000000600052604160045260246000fd5b611feb82611b70565b810181811067ffffffffffffffff8211171561200a57612009611fb3565b5b80604052505050565b600061201d611a63565b90506120298282611fe2565b919050565b600067ffffffffffffffff82111561204957612048611fb3565b5b602082029050602081019050919050565b600080fd5b61206881611b09565b811461207357600080fd5b50565b6000813590506120858161205f565b92915050565b600061209e6120998461202e565b612013565b905080838252602082019050602084028301858111156120c1576120c061205a565b5b835b818110156120ea57806120d68882612076565b8452602084019350506020810190506120c3565b5050509392505050565b600082601f83011261210957612108611fae565b5b813561211984826020860161208b565b91505092915050565b600067ffffffffffffffff82111561213d5761213c611fb3565b5b602082029050602081019050919050565b600061216161215c84612122565b612013565b905080838252602082019050602084028301858111156121845761218361205a565b5b835b818110156121ad57806121998882611a98565b845260208401935050602081019050612186565b5050509392505050565b600082601f8301126121cc576121cb611fae565b5b81356121dc84826020860161214e565b91505092915050565b600067ffffffffffffffff821115612200576121ff611fb3565b5b602082029050602081019050919050565b600080fd5b600067ffffffffffffffff82111561223157612230611fb3565b5b61223a82611b70565b9050602081019050919050565b82818337600083830152505050565b600061226961226484612216565b612013565b90508281526020810184848401111561228557612284612211565b5b612290848285612247565b509392505050565b600082601f8301126122ad576122ac611fae565b5b81356122bd848260208601612256565b91505092915050565b60006122d96122d4846121e5565b612013565b905080838252602082019050602084028301858111156122fc576122fb61205a565b5b835b8181101561234357803567ffffffffffffffff81111561232157612320611fae565b5b80860161232e8982612298565b855260208501945050506020810190506122fe565b5050509392505050565b600082601f83011261236257612361611fae565b5b81356123728482602086016122c6565b91505092915050565b600067ffffffffffffffff82111561239657612395611fb3565b5b602082029050602081019050919050565b600067ffffffffffffffff8211156123c2576123c1611fb3565b5b6123cb82611b70565b9050602081019050919050565b60006123eb6123e6846123a7565b612013565b90508281526020810184848401111561240757612406612211565b5b612412848285612247565b509392505050565b600082601f83011261242f5761242e611fae565b5b813561243f8482602086016123d8565b91505092915050565b600061245b6124568461237b565b612013565b9050808382526020820190506020840283018581111561247e5761247d61205a565b5b835b818110156124c557803567ffffffffffffffff8111156124a3576124a2611fae565b5b8086016124b0898261241a565b85526020850194505050602081019050612480565b5050509392505050565b600082601f8301126124e4576124e3611fae565b5b81356124f4848260208601612448565b91505092915050565b600080600080600060a0868803121561251957612518611a6d565b5b600086013567ffffffffffffffff81111561253757612536611a72565b5b612543888289016120f4565b955050602086013567ffffffffffffffff81111561256457612563611a72565b5b612570888289016121b7565b945050604086013567ffffffffffffffff81111561259157612590611a72565b5b61259d8882890161234d565b935050606086013567ffffffffffffffff8111156125be576125bd611a72565b5b6125ca888289016124cf565b925050608086013567ffffffffffffffff8111156125eb576125ea611a72565b5b6125f788828901612298565b9150509295509295909350565b6000806040838503121561261b5761261a611a6d565b5b600061262985828601611a98565b925050602061263a85828601612076565b9150509250929050565b60006020820190506126596000830184611bc6565b92915050565b6000819050919050565b600061268461267f61267a84611ae9565b61265f565b611ae9565b9050919050565b600061269682612669565b9050919050565b60006126a88261268b565b9050919050565b6126b88161269d565b82525050565b60006020820190506126d360008301846126af565b92915050565b60006020820190506126ee6000830184611b1b565b92915050565b600081519050919050565b600082825260208201905092915050565b6000819050602082019050919050565b600081519050919050565b600082825260208201905092915050565b600061274782612720565b612751818561272b565b9350612761818560208601611b46565b61276a81611b70565b840191505092915050565b6000612781838361273c565b905092915050565b6000602082019050919050565b60006127a1826126f4565b6127ab81856126ff565b9350836020820285016127bd85612710565b8060005b858110156127f957848403895281516127da8582612775565b94506127e583612789565b925060208a019950506001810190506127c1565b50829750879550505050505092915050565b600060208201905081810360008301526128258184612796565b905092915050565b60006020828403121561284357612842611a6d565b5b600061285184828501612076565b91505092915050565b60006128658261268b565b9050919050565b6128758161285a565b82525050565b6000602082019050612890600083018461286c565b92915050565b61289f81611bba565b81146128aa57600080fd5b50565b6000813590506128bc81612896565b92915050565b600080604083850312156128d9576128d8611a6d565b5b60006128e785828601611a98565b92505060206128f8858286016128ad565b9150509250929050565b7f4e487b7100000000000000000000000000000000000000000000000000000000600052602260045260246000fd5b6000600282049050600182168061294957607f821691505b60208210810361295c5761295b612902565b5b50919050565b7f476f7665726e616e63653a2050726f706f73616c20616c72656164792065786560008201527f6375746564000000000000000000000000000000000000000000000000000000602082015250565b60006129be602583611b35565b91506129c982612962565b604082019050919050565b600060208201905081810360008301526129ed816129b1565b9050919050565b7f476f7665726e616e63653a20566f74696e6720706572696f64206e6f7420656e60008201527f6465640000000000000000000000000000000000000000000000000000000000602082015250565b6000612a50602383611b35565b9150612a5b826129f4565b604082019050919050565b60006020820190508181036000830152612a7f81612a43565b9050919050565b7f4e487b7100000000000000000000000000000000000000000000000000000000600052601160045260246000fd5b6000612ac082611a77565b9150612acb83611a77565b9250828201905080821115612ae357612ae2612a86565b5b92915050565b600081519050612af881611a81565b92915050565b600060208284031215612b1457612b13611a6d565b5b6000612b2284828501612ae9565b91505092915050565b7f476f7665726e616e63653a204e6f20766f74696e67206d656d6265727320657860008201527f6973740000000000000000000000000000000000000000000000000000000000602082015250565b6000612b87602383611b35565b9150612b9282612b2b565b604082019050919050565b60006020820190508181036000830152612bb681612b7a565b9050919050565b6000612bc882611a77565b9150612bd383611a77565b9250828202612be181611a77565b91508282048414831517612bf857612bf7612a86565b5b5092915050565b7f476f7665726e616e63653a2051756f72756d206e6f7420726561636865640000600082015250565b6000612c35601e83611b35565b9150612c4082612bff565b602082019050919050565b60006020820190508181036000830152612c6481612c28565b9050919050565b7f476f7665726e616e63653a2050726f706f73616c20646964206e6f742070617360008201527f7300000000000000000000000000000000000000000000000000000000000000602082015250565b6000612cc7602183611b35565b9150612cd282612c6b565b604082019050919050565b60006020820190508181036000830152612cf681612cba565b9050919050565b7f4e487b7100000000000000000000000000000000000000000000000000000000600052603260045260246000fd5b600081905092915050565b60008190508160005260206000209050919050565b60008154612d5981612931565b612d638186612d2c565b94506001821660008114612d7e5760018114612d9357612dc6565b60ff1983168652811515820286019350612dc6565b612d9c85612d37565b60005b83811015612dbe57815481890152600182019150602081019050612d9f565b838801955050505b50505092915050565b6000612ddb8284612d4c565b915081905092915050565b7f476f7665726e616e63653a2050726f706f73616c20657865637574696f6e206660008201527f61696c6564000000000000000000000000000000000000000000000000000000602082015250565b6000612e42602583611b35565b9150612e4d82612de6565b604082019050919050565b60006020820190508181036000830152612e7181612e35565b9050919050565b600081519050612e8781612896565b92915050565b600060208284031215612ea357612ea2611a6d565b5b6000612eb184828501612e78565b91505092915050565b7f476f7665726e616e63653a2043616c6c6572206973206e6f74206120766f746960008201527f6e67206d656d6265720000000000000000000000000000000000000000000000602082015250565b6000612f16602983611b35565b9150612f2182612eba565b604082019050919050565b60006020820190508181036000830152612f4581612f09565b9050919050565b60008190508160005260206000209050919050565b60006020601f8301049050919050565b600082821b905092915050565b600060088302612fae7fffffffffffffffffffffffffffffffffffffffffffffffffffffffffffffffff82612f71565b612fb88683612f71565b95508019841693508086168417925050509392505050565b6000612feb612fe6612fe184611a77565b61265f565b611a77565b9050919050565b6000819050919050565b61300583612fd0565b61301961301182612ff2565b848454612f7e565b825550505050565b600090565b61302e613021565b613039818484612ffc565b505050565b5b8181101561305d57613052600082613026565b60018101905061303f565b5050565b601f8211156130a25761307381612f4c565b61307c84612f61565b8101602085101561308b578190505b61309f61309785612f61565b83018261303e565b50505b505050565b600082821c905092915050565b60006130c5600019846008026130a7565b1980831691505092915050565b60006130de83836130b4565b9150826002028217905092915050565b6130f782611b2a565b67ffffffffffffffff8111156131105761310f611fb3565b5b61311a8254612931565b613125828285613061565b600060209050601f8311600181146131585760008415613146578287015190505b61315085826130d2565b8655506131b8565b601f19841661316686612f4c565b60005b8281101561318e57848901518255600182019150602085019450602081019050613169565b868310156131ab57848901516131a7601f8916826130b4565b8355505b6001600288020188555050505b505050505050565b6000610120820190506131d6600083018c611ada565b6131e3602083018b611b1b565b81810360408301526131f5818a611f2e565b905081810360608301526132098189611cc9565b9050818103608083015261321d8188611e37565b905081810360a08301526132318187612796565b905061324060c0830186611ada565b61324d60e0830185611ada565b8181036101008301526132608184611b81565b90509a9950505050505050505050565b600061327b82611a77565b91507fffffffffffffffffffffffffffffffffffffffffffffffffffffffffffffffff82036132ad576132ac612a86565b5b600182019050919050565b7f476f7665726e616e63653a2050726f706f73616c20646f6573206e6f7420657860008201527f6973740000000000000000000000000000000000000000000000000000000000602082015250565b6000613314602383611b35565b915061331f826132b8565b604082019050919050565b6000602082019050818103600083015261334381613307565b9050919050565b7f476f7665726e616e63653a2050726f706f73616c206e6f742073746172746564600082015250565b6000613380602083611b35565b915061338b8261334a565b602082019050919050565b600060208201905081810360008301526133af81613373565b9050919050565b7f476f7665726e616e63653a2050726f706f73616c206e6f742061637469766500600082015250565b60006133ec601f83611b35565b91506133f7826133b6565b602082019050919050565b6000602082019050818103600083015261341b816133df565b9050919050565b7f476f7665726e616e63653a20566f74657220616c726561647920766f74656400600082015250565b6000613458601f83611b35565b915061346382613422565b602082019050919050565b600060208201905081810360008301526134878161344b565b9050919050565b7f476f7665726e616e63653a20566f74657220686173206e6f20766f74696e672060008201527f706f776572000000000000000000000000000000000000000000000000000000602082015250565b60006134ea602583611b35565b91506134f58261348e565b604082019050919050565b60006020820190508181036000830152613519816134dd565b9050919050565b60006080820190506135356000830187611ada565b6135426020830186611b1b565b61354f6040830185611bc6565b61355c6060830184611ada565b95945050505050565b601f8211156135a65761357781612d37565b61358084612f61565b8101602085101561358f578190505b6135a361359b85612f61565b83018261303e565b50505b505050565b6135b482612720565b67ffffffffffffffff8111156135cd576135cc611fb3565b5b6135d78254612931565b6135e2828285613565565b600060209050601f8311600181146136155760008415613603578287015190505b61360d85826130d2565b865550613675565b601f19841661362386612d37565b60005b8281101561364b57848901518255600182019150602085019450602081019050613626565b868310156136685784890151613664601f8916826130b4565b8355505b6001600288020188555050505b50505050505056fea2646970667358221220c0657d0d8713f6377b2c374fe6c0fe9e7011a15ede63eea40d63c1cfaba7859964736f6c634300081c0033",
  "linkReferences": {},
  "deployedLinkReferences": {}
}