{
  "_format": "hh-sol-artifact-1",
  "contractName": "IncomeManagementContract",
  "sourceName": "contracts/IncomeManagementContract.sol",
  "abi": [
    {
      "inputs": [
        {
          "internalType": "address",
          "name": "initialOwner",
          "type": "address"
        },
        {
          "internalType": "uint256",
          "name": "_initialCompanyIncomePercentage",
          "type": "uint256"
        },
        {
          "internalType": "address",
          "name": "_paymentContractAddress",
          "type": "address"
        }
      ],
      "stateMutability": "nonpayable",
      "type": "constructor"
    },
    {
      "inputs": [
        {
          "internalType": "address",
          "name": "owner",
          "type": "address"
        }
      ],
      "name": "OwnableInvalidOwner",
      "type": "error"
    },
    {
      "inputs": [
        {
          "internalType": "address",
          "name": "account",
          "type": "address"
        }
      ],
      "name": "OwnableUnauthorizedAccount",
      "type": "error"
    },
    {
      "anonymous": false,
      "inputs": [
        {
          "indexed": false,
          "internalType": "uint256",
          "name": "oldPercentage",
          "type": "uint256"
        },
        {
          "indexed": false,
          "internalType": "uint256",
          "name": "newPercentage",
          "type": "uint256"
        }
      ],
      "name": "CompanyIncomePercentageSet",
      "type": "event"
    },
    {
      "anonymous": false,
      "inputs": [
        {
          "indexed": true,
          "internalType": "address",
          "name": "previousOwner",
          "type": "address"
        },
        {
          "indexed": true,
          "internalType": "address",
          "name": "newOwner",
          "type": "address"
        }
      ],
      "name": "OwnershipTransferred",
      "type": "event"
    },
    {
      "anonymous": false,
      "inputs": [
        {
          "indexed": true,
          "internalType": "address",
          "name": "from",
          "type": "address"
        },
        {
          "indexed": false,
          "internalType": "uint256",
          "name": "amount",
          "type": "uint256"
        }
      ],
      "name": "PaymentReceived",
      "type": "event"
    },
    {
      "inputs": [],
      "name": "MAX_BASIS_POINTS",
      "outputs": [
        {
          "internalType": "uint256",
          "name": "",
          "type": "uint256"
        }
      ],
      "stateMutability": "view",
      "type": "function"
    },
    {
      "inputs": [],
      "name": "companyIncomePercentage",
      "outputs": [
        {
          "internalType": "uint256",
          "name": "",
          "type": "uint256"
        }
      ],
      "stateMutability": "view",
      "type": "function"
    },
    {
      "inputs": [
        {
          "internalType": "address",
          "name": "consultant",
          "type": "address"
        },
        {
          "internalType": "uint256",
          "name": "workUnits",
          "type": "uint256"
        }
      ],
      "name": "distributeIncomeForConsultant",
      "outputs": [],
      "stateMutability": "payable",
      "type": "function"
    },
    {
      "inputs": [],
      "name": "getCompanyIncomePercentage",
      "outputs": [
        {
          "internalType": "uint256",
          "name": "",
          "type": "uint256"
        }
      ],
      "stateMutability": "view",
      "type": "function"
    },
    {
      "inputs": [],
      "name": "owner",
      "outputs": [
        {
          "internalType": "address",
          "name": "",
          "type": "address"
        }
      ],
      "stateMutability": "view",
      "type": "function"
    },
    {
      "inputs": [],
      "name": "paymentContract",
      "outputs": [
        {
          "internalType": "contract PaymentContract",
          "name": "",
          "type": "address"
        }
      ],
      "stateMutability": "view",
      "type": "function"
    },
    {
      "inputs": [],
      "name": "renounceOwnership",
      "outputs": [],
      "stateMutability": "nonpayable",
      "type": "function"
    },
    {
      "inputs": [
        {
          "internalType": "uint256",
          "name": "_newPercentage",
          "type": "uint256"
        }
      ],
      "name": "setCompanyIncomePercentage",
      "outputs": [],
      "stateMutability": "nonpayable",
      "type": "function"
    },
    {
      "inputs": [
        {
          "internalType": "address",
          "name": "newOwner",
          "type": "address"
        }
      ],
      "name": "transferOwnership",
      "outputs": [],
      "stateMutability": "nonpayable",
      "type": "function"
    },
    {
      "stateMutability": "payable",
      "type": "receive"
    }
  ],
  "bytecode": "0x608060405234801561001057600080fd5b5060405161158c38038061158c83398181016040528101906100329190610316565b82600073ffffffffffffffffffffffffffffffffffffffff168173ffffffffffffffffffffffffffffffffffffffff16036100a55760006040517f1e4fbdf700000000000000000000000000000000000000000000000000000000815260040161009c9190610378565b60405180910390fd5b6100b4816101b960201b60201c565b506127108211156100fa576040517f08c379a00000000000000000000000000000000000000000000000000000000081526004016100f190610416565b60405180910390fd5b600073ffffffffffffffffffffffffffffffffffffffff168173ffffffffffffffffffffffffffffffffffffffff1603610169576040517f08c379a0000000000000000000000000000000000000000000000000000000008152600401610160906104a8565b60405180910390fd5b8160018190555080600260006101000a81548173ffffffffffffffffffffffffffffffffffffffff021916908373ffffffffffffffffffffffffffffffffffffffff1602179055505050506104c8565b60008060009054906101000a900473ffffffffffffffffffffffffffffffffffffffff169050816000806101000a81548173ffffffffffffffffffffffffffffffffffffffff021916908373ffffffffffffffffffffffffffffffffffffffff1602179055508173ffffffffffffffffffffffffffffffffffffffff168173ffffffffffffffffffffffffffffffffffffffff167f8be0079c531659141344cd1fd0a4f28419497f9722a3daafe3b4186f6b6457e060405160405180910390a35050565b600080fd5b600073ffffffffffffffffffffffffffffffffffffffff82169050919050565b60006102ad82610282565b9050919050565b6102bd816102a2565b81146102c857600080fd5b50565b6000815190506102da816102b4565b92915050565b6000819050919050565b6102f3816102e0565b81146102fe57600080fd5b50565b600081519050610310816102ea565b92915050565b60008060006060848603121561032f5761032e61027d565b5b600061033d868287016102cb565b935050602061034e86828701610301565b925050604061035f868287016102cb565b9150509250925092565b610372816102a2565b82525050565b600060208201905061038d6000830184610369565b92915050565b600082825260208201905092915050565b7f496e636f6d654d676d743a20496e697469616c2070657263656e74616765206560008201527f786365656473206d617800000000000000000000000000000000000000000000602082015250565b6000610400602a83610393565b915061040b826103a4565b604082019050919050565b6000602082019050818103600083015261042f816103f3565b9050919050565b7f496e636f6d654d676d743a20496e76616c6964205061796d656e74436f6e747260008201527f6163742061646472657373000000000000000000000000000000000000000000602082015250565b6000610492602b83610393565b915061049d82610436565b604082019050919050565b600060208201905081810360008301526104c181610485565b9050919050565b6110b5806104d76000396000f3fe60806040526004361061008a5760003560e01c8063715018a611610059578063715018a61461017f5780638da5cb5b146101965780639c91dd56146101c1578063f2fde38b146101ec578063f4ea93d814610215576100df565b806323c68563146100e4578063382b4d5414610100578063383e5a001461012b5780636c8df26314610154576100df565b366100df573373ffffffffffffffffffffffffffffffffffffffff167f6ef95f06320e7a25a04a175ca677b7052bdd97131872c2192525a629f51be770346040516100d59190610875565b60405180910390a2005b600080fd5b6100fe60048036038101906100f9919061091f565b610240565b005b34801561010c57600080fd5b50610115610572565b6040516101229190610875565b60405180910390f35b34801561013757600080fd5b50610152600480360381019061014d919061095f565b610578565b005b34801561016057600080fd5b50610169610610565b6040516101769190610875565b60405180910390f35b34801561018b57600080fd5b5061019461061a565b005b3480156101a257600080fd5b506101ab61062e565b6040516101b8919061099b565b60405180910390f35b3480156101cd57600080fd5b506101d6610657565b6040516101e39190610a15565b60405180910390f35b3480156101f857600080fd5b50610213600480360381019061020e9190610a30565b61067d565b005b34801561022157600080fd5b5061022a610703565b6040516102379190610875565b60405180910390f35b610248610709565b600073ffffffffffffffffffffffffffffffffffffffff168273ffffffffffffffffffffffffffffffffffffffff16036102b7576040517f08c379a00000000000000000000000000000000000000000000000000000000081526004016102ae90610ae0565b60405180910390fd5b600081116102fa576040517f08c379a00000000000000000000000000000000000000000000000000000000081526004016102f190610b72565b60405180910390fd5b6000600260009054906101000a900473ffffffffffffffffffffffffffffffffffffffff1673ffffffffffffffffffffffffffffffffffffffff166328e31d3484846040518363ffffffff1660e01b8152600401610359929190610b92565b602060405180830381865afa158015610376573d6000803e3d6000fd5b505050506040513d601f19601f8201168201806040525081019061039a9190610bd0565b9050600081116103df576040517f08c379a00000000000000000000000000000000000000000000000000000000081526004016103d690610c6f565b60405180910390fd5b60015461271011610425576040517f08c379a000000000000000000000000000000000000000000000000000000000815260040161041c90610d01565b60405180910390fd5b60006001546127106104379190610d50565b612710836104459190610d84565b61044f9190610df5565b90506000612710600154836104649190610d84565b61046e9190610df5565b9050808361047c9190610e26565b4710156104be576040517f08c379a00000000000000000000000000000000000000000000000000000000081526004016104b590610ecc565b60405180910390fd5b60008573ffffffffffffffffffffffffffffffffffffffff16846040516104e490610f1d565b60006040518083038185875af1925050503d8060008114610521576040519150601f19603f3d011682016040523d82523d6000602084013e610526565b606091505b505090508061056a576040517f08c379a000000000000000000000000000000000000000000000000000000000815260040161056190610fa4565b60405180910390fd5b505050505050565b60015481565b610580610709565b6127108111156105c5576040517f08c379a00000000000000000000000000000000000000000000000000000000081526004016105bc90611036565b60405180910390fd5b60006001549050816001819055507f0cd1de0d427988ca7ac04cd781e1b1c4b7ecc5644cd60ca9f6d1c48f9bb336728183604051610604929190611056565b60405180910390a15050565b6000600154905090565b610622610709565b61062c6000610790565b565b60008060009054906101000a900473ffffffffffffffffffffffffffffffffffffffff16905090565b600260009054906101000a900473ffffffffffffffffffffffffffffffffffffffff1681565b610685610709565b600073ffffffffffffffffffffffffffffffffffffffff168173ffffffffffffffffffffffffffffffffffffffff16036106f75760006040517f1e4fbdf70000000000000000000000000000000000000000000000000000000081526004016106ee919061099b565b60405180910390fd5b61070081610790565b50565b61271081565b610711610854565b73ffffffffffffffffffffffffffffffffffffffff1661072f61062e565b73ffffffffffffffffffffffffffffffffffffffff161461078e57610752610854565b6040517f118cdaa7000000000000000000000000000000000000000000000000000000008152600401610785919061099b565b60405180910390fd5b565b60008060009054906101000a900473ffffffffffffffffffffffffffffffffffffffff169050816000806101000a81548173ffffffffffffffffffffffffffffffffffffffff021916908373ffffffffffffffffffffffffffffffffffffffff1602179055508173ffffffffffffffffffffffffffffffffffffffff168173ffffffffffffffffffffffffffffffffffffffff167f8be0079c531659141344cd1fd0a4f28419497f9722a3daafe3b4186f6b6457e060405160405180910390a35050565b600033905090565b6000819050919050565b61086f8161085c565b82525050565b600060208201905061088a6000830184610866565b92915050565b600080fd5b600073ffffffffffffffffffffffffffffffffffffffff82169050919050565b60006108c082610895565b9050919050565b6108d0816108b5565b81146108db57600080fd5b50565b6000813590506108ed816108c7565b92915050565b6108fc8161085c565b811461090757600080fd5b50565b600081359050610919816108f3565b92915050565b6000806040838503121561093657610935610890565b5b6000610944858286016108de565b92505060206109558582860161090a565b9150509250929050565b60006020828403121561097557610974610890565b5b60006109838482850161090a565b91505092915050565b610995816108b5565b82525050565b60006020820190506109b0600083018461098c565b92915050565b6000819050919050565b60006109db6109d66109d184610895565b6109b6565b610895565b9050919050565b60006109ed826109c0565b9050919050565b60006109ff826109e2565b9050919050565b610a0f816109f4565b82525050565b6000602082019050610a2a6000830184610a06565b92915050565b600060208284031215610a4657610a45610890565b5b6000610a54848285016108de565b91505092915050565b600082825260208201905092915050565b7f496e636f6d654d676d743a20496e76616c696420636f6e73756c74616e74206160008201527f6464726573730000000000000000000000000000000000000000000000000000602082015250565b6000610aca602683610a5d565b9150610ad582610a6e565b604082019050919050565b60006020820190508181036000830152610af981610abd565b9050919050565b7f496e636f6d654d676d743a20576f726b20756e697473206d757374206265207060008201527f6f73697469766500000000000000000000000000000000000000000000000000602082015250565b6000610b5c602783610a5d565b9150610b6782610b00565b604082019050919050565b60006020820190508181036000830152610b8b81610b4f565b9050919050565b6000604082019050610ba7600083018561098c565b610bb46020830184610866565b9392505050565b600081519050610bca816108f3565b92915050565b600060208284031215610be657610be5610890565b5b6000610bf484828501610bbb565b91505092915050565b7f496e636f6d654d676d743a2043616c63756c61746564207061796f757420697360008201527f207a65726f000000000000000000000000000000000000000000000000000000602082015250565b6000610c59602583610a5d565b9150610c6482610bfd565b604082019050919050565b60006020820190508181036000830152610c8881610c4c565b9050919050565b7f496e636f6d654d676d743a20436f6d70616e792070657263656e74616765206360008201527f616e6e6f74206265203130302500000000000000000000000000000000000000602082015250565b6000610ceb602d83610a5d565b9150610cf682610c8f565b604082019050919050565b60006020820190508181036000830152610d1a81610cde565b9050919050565b7f4e487b7100000000000000000000000000000000000000000000000000000000600052601160045260246000fd5b6000610d5b8261085c565b9150610d668361085c565b9250828203905081811115610d7e57610d7d610d21565b5b92915050565b6000610d8f8261085c565b9150610d9a8361085c565b9250828202610da88161085c565b91508282048414831517610dbf57610dbe610d21565b5b5092915050565b7f4e487b7100000000000000000000000000000000000000000000000000000000600052601260045260246000fd5b6000610e008261085c565b9150610e0b8361085c565b925082610e1b57610e1a610dc6565b5b828204905092915050565b6000610e318261085c565b9150610e3c8361085c565b9250828201905080821115610e5457610e53610d21565b5b92915050565b7f496e636f6d654d676d743a20496e73756666696369656e742062616c616e636560008201527f20666f7220646973747269627574696f6e000000000000000000000000000000602082015250565b6000610eb6603183610a5d565b9150610ec182610e5a565b604082019050919050565b60006020820190508181036000830152610ee581610ea9565b9050919050565b600081905092915050565b50565b6000610f07600083610eec565b9150610f1282610ef7565b600082019050919050565b6000610f2882610efa565b9150819050919050565b7f496e636f6d654d676d743a20436f6e73756c74616e74207061796d656e74206660008201527f61696c6564000000000000000000000000000000000000000000000000000000602082015250565b6000610f8e602583610a5d565b9150610f9982610f32565b604082019050919050565b60006020820190508181036000830152610fbd81610f81565b9050919050565b7f496e636f6d654d676d743a204e65772070657263656e7461676520657863656560008201527f6473206d61780000000000000000000000000000000000000000000000000000602082015250565b6000611020602683610a5d565b915061102b82610fc4565b604082019050919050565b6000602082019050818103600083015261104f81611013565b9050919050565b600060408201905061106b6000830185610866565b6110786020830184610866565b939250505056fea264697066735822122009f392c7682a2a61a6efc537c3c14a4ba245c495549567ea9364c49c0bb8a65564736f6c634300081c0033",
  "linkReferences": {},
  "deployedLinkReferences": {}
}