{
  "_format": "hh-sol-artifact-1",
  "contractName": "PaymentContract",
  "sourceName": "contracts/PaymentContract.sol",
  "abi": [
    {
      "inputs": [
        {
          "internalType": "address",
          "name": "initialOwner",
          "type": "address"
        }
      ],
      "stateMutability": "nonpayable",
      "type": "constructor"
    },
    {
      "inputs": [
        {
          "internalType": "address",
          "name": "owner",
          "type": "address"
        }
      ],
      "name": "OwnableInvalidOwner",
      "type": "error"
    },
    {
      "inputs": [
        {
          "internalType": "address",
          "name": "account",
          "type": "address"
        }
      ],
      "name": "OwnableUnauthorizedAccount",
      "type": "error"
    },
    {
      "anonymous": false,
      "inputs": [
        {
          "indexed": true,
          "internalType": "address",
          "name": "consultant",
          "type": "address"
        },
        {
          "indexed": false,
          "internalType": "uint256",
          "name": "rate",
          "type": "uint256"
        }
      ],
      "name": "ConsultantRateSet",
      "type": "event"
    },
    {
      "anonymous": false,
      "inputs": [
        {
          "indexed": true,
          "internalType": "address",
          "name": "previousOwner",
          "type": "address"
        },
        {
          "indexed": true,
          "internalType": "address",
          "name": "newOwner",
          "type": "address"
        }
      ],
      "name": "OwnershipTransferred",
      "type": "event"
    },
    {
      "inputs": [
        {
          "internalType": "address",
          "name": "consultant",
          "type": "address"
        },
        {
          "internalType": "uint256",
          "name": "workUnits",
          "type": "uint256"
        }
      ],
      "name": "calculatePayout",
      "outputs": [
        {
          "internalType": "uint256",
          "name": "",
          "type": "uint256"
        }
      ],
      "stateMutability": "view",
      "type": "function"
    },
    {
      "inputs": [
        {
          "internalType": "address",
          "name": "consultant",
          "type": "address"
        }
      ],
      "name": "getConsultantRate",
      "outputs": [
        {
          "internalType": "uint256",
          "name": "",
          "type": "uint256"
        }
      ],
      "stateMutability": "view",
      "type": "function"
    },
    {
      "inputs": [],
      "name": "owner",
      "outputs": [
        {
          "internalType": "address",
          "name": "",
          "type": "address"
        }
      ],
      "stateMutability": "view",
      "type": "function"
    },
    {
      "inputs": [],
      "name": "renounceOwnership",
      "outputs": [],
      "stateMutability": "nonpayable",
      "type": "function"
    },
    {
      "inputs": [
        {
          "internalType": "address",
          "name": "consultant",
          "type": "address"
        },
        {
          "internalType": "uint256",
          "name": "rate",
          "type": "uint256"
        }
      ],
      "name": "setConsultantRate",
      "outputs": [],
      "stateMutability": "nonpayable",
      "type": "function"
    },
    {
      "inputs": [
        {
          "internalType": "address",
          "name": "newOwner",
          "type": "address"
        }
      ],
      "name": "transferOwnership",
      "outputs": [],
      "stateMutability": "nonpayable",
      "type": "function"
    }
  ],
  "bytecode": "0x608060405234801561001057600080fd5b506040516109a23803806109a2833981810160405281019061003291906101e2565b80600073ffffffffffffffffffffffffffffffffffffffff168173ffffffffffffffffffffffffffffffffffffffff16036100a55760006040517f1e4fbdf700000000000000000000000000000000000000000000000000000000815260040161009c919061021e565b60405180910390fd5b6100b4816100bb60201b60201c565b5050610239565b60008060009054906101000a900473ffffffffffffffffffffffffffffffffffffffff169050816000806101000a81548173ffffffffffffffffffffffffffffffffffffffff021916908373ffffffffffffffffffffffffffffffffffffffff1602179055508173ffffffffffffffffffffffffffffffffffffffff168173ffffffffffffffffffffffffffffffffffffffff167f8be0079c531659141344cd1fd0a4f28419497f9722a3daafe3b4186f6b6457e060405160405180910390a35050565b600080fd5b600073ffffffffffffffffffffffffffffffffffffffff82169050919050565b60006101af82610184565b9050919050565b6101bf816101a4565b81146101ca57600080fd5b50565b6000815190506101dc816101b6565b92915050565b6000602082840312156101f8576101f761017f565b5b6000610206848285016101cd565b91505092915050565b610218816101a4565b82525050565b6000602082019050610233600083018461020f565b92915050565b61075a806102486000396000f3fe608060405234801561001057600080fd5b50600436106100625760003560e01c806328e31d34146100675780634d011f2c14610097578063715018a6146100c75780638da5cb5b146100d1578063b76e9faa146100ef578063f2fde38b1461010b575b600080fd5b610081600480360381019061007c919061054f565b610127565b60405161008e919061059e565b60405180910390f35b6100b160048036038101906100ac91906105b9565b61014a565b6040516100be919061059e565b60405180910390f35b6100cf610193565b005b6100d96101a7565b6040516100e691906105f5565b60405180910390f35b6101096004803603810190610104919061054f565b6101d0565b005b610125600480360381019061012091906105b9565b6102dd565b005b6000806101338461014a565b90508281610141919061063f565b91505092915050565b6000600160008373ffffffffffffffffffffffffffffffffffffffff1673ffffffffffffffffffffffffffffffffffffffff168152602001908152602001600020549050919050565b61019b610363565b6101a560006103ea565b565b60008060009054906101000a900473ffffffffffffffffffffffffffffffffffffffff16905090565b6101d8610363565b600073ffffffffffffffffffffffffffffffffffffffff168273ffffffffffffffffffffffffffffffffffffffff1603610247576040517f08c379a000000000000000000000000000000000000000000000000000000000815260040161023e90610704565b60405180910390fd5b80600160008473ffffffffffffffffffffffffffffffffffffffff1673ffffffffffffffffffffffffffffffffffffffff168152602001908152602001600020819055508173ffffffffffffffffffffffffffffffffffffffff167fe811186f2f2d7cae06c87c2c362c37581732e34776a8476e467d6b87e2e267e0826040516102d1919061059e565b60405180910390a25050565b6102e5610363565b600073ffffffffffffffffffffffffffffffffffffffff168173ffffffffffffffffffffffffffffffffffffffff16036103575760006040517f1e4fbdf700000000000000000000000000000000000000000000000000000000815260040161034e91906105f5565b60405180910390fd5b610360816103ea565b50565b61036b6104ae565b73ffffffffffffffffffffffffffffffffffffffff166103896101a7565b73ffffffffffffffffffffffffffffffffffffffff16146103e8576103ac6104ae565b6040517f118cdaa70000000000000000000000000000000000000000000000000000000081526004016103df91906105f5565b60405180910390fd5b565b60008060009054906101000a900473ffffffffffffffffffffffffffffffffffffffff169050816000806101000a81548173ffffffffffffffffffffffffffffffffffffffff021916908373ffffffffffffffffffffffffffffffffffffffff1602179055508173ffffffffffffffffffffffffffffffffffffffff168173ffffffffffffffffffffffffffffffffffffffff167f8be0079c531659141344cd1fd0a4f28419497f9722a3daafe3b4186f6b6457e060405160405180910390a35050565b600033905090565b600080fd5b600073ffffffffffffffffffffffffffffffffffffffff82169050919050565b60006104e6826104bb565b9050919050565b6104f6816104db565b811461050157600080fd5b50565b600081359050610513816104ed565b92915050565b6000819050919050565b61052c81610519565b811461053757600080fd5b50565b60008135905061054981610523565b92915050565b60008060408385031215610566576105656104b6565b5b600061057485828601610504565b92505060206105858582860161053a565b9150509250929050565b61059881610519565b82525050565b60006020820190506105b3600083018461058f565b92915050565b6000602082840312156105cf576105ce6104b6565b5b60006105dd84828501610504565b91505092915050565b6105ef816104db565b82525050565b600060208201905061060a60008301846105e6565b92915050565b7f4e487b7100000000000000000000000000000000000000000000000000000000600052601160045260246000fd5b600061064a82610519565b915061065583610519565b925082820261066381610519565b9150828204841483151761067a57610679610610565b5b5092915050565b600082825260208201905092915050565b7f5061796d656e743a2043616e6e6f7420736574207261746520666f72207a657260008201527f6f20616464726573730000000000000000000000000000000000000000000000602082015250565b60006106ee602983610681565b91506106f982610692565b604082019050919050565b6000602082019050818103600083015261071d816106e1565b905091905056fea26469706673582212207ebfe5a1c89785abd792e62a8d7431c00870a942d8e71eda82d104e88e3e183f64736f6c634300081c0033",
  "linkReferences": {},
  "deployedLinkReferences": {}
}